:020000040040BA
:100000009025402001114000B1114000B111400085
:10001000B1114000B1114000B111400000000000DA
:10002000000000000000000000000000B1114000CE
:10003000B111400000000000B1114000B1114000BA
:10004000B1114000B1114000B1114000B1114000A8
:10005000B1114000B1114000B1114000B111400098
:10006000B111400000000000C1094000D909400062
:10007000F1094000B111400045164000B1114000A7
:10008000090A4000210A4000B1114000B1114000AE
:10009000B1114000B1114000B1114000B111400058
:1000A000B1114000B1114000B1114000B111400048
:1000B000B1114000B1114000B1114000B111400038
:1000C000B1114000B1114000B1114000B111400028
:1000D00000000000B111400000000000B11140001C
:1000E000B1114000B1114000B1114000B111400008
:1000F000B1114000B1114000B1114000B1114000F8
:10010000B1114000B1114000B1114000B1114000E7
:10011000B1114000000000000000000000000000DD
:10012000B1114000B1114000B1114000B1114000C7
:10013000B111400000000000B1114000B1114000B9
:1001400010B5054C237833B9044B13B10448AFF311
:1001500000800123237010BD300440200000000007
:10016000401A4000084B10B51BB108490848AFF3CE
:1001700000800848036803B910BD074B002BFBD073
:10018000BDE81040184700BF0000000034044020C4
:10019000401A4000401A40000000000080B582B0C4
:1001A00000AF78607B68072B31D801A252F823F0AA
:1001B0000D024000D1014000D9014000E1014000A2
:1001C000E9014000F1014000F90140000302400054
:1001D0000020114B98471AE001200F4B984716E07A
:1001E00000200E4B984712E010200C4B98470EE071
:1001F00020200A4B98470AE03E210020084B9847F0
:1002000005E03E210120064B984700E000BF00BFFB
:100210000837BD4680BD00BF390B4000A50B40002C
:10022000150C400080B582B000AF78607B68072B6A
:1002300026D801A252F823F0590240005D02400086
:100240005D0240006F0240006F0240006F024000FC
:100250006F0240006F024000012312E00B4B9847F1
:100260000346002B14BF01230023DBB209E0084B37
:1002700098470346002B14BF01230023DBB200E0A4
:10028000002318460837BD4680BD00BF710B4000F3
:100290008D0C400080B483B000AF78607B68072B82
:1002A00025D801A252F823F0C9024000CF02400035
:1002B000D5024000DB024000DF024000E3024000C4
:1002C000E7024000EB0240004FF4FA4310E04FF425
:1002D00000430DE04FF400430AE0084B08E0084BF0
:1002E00006E0084B04E0074B02E0064B00E0002369
:1002F00018460C37BD465DF8047B704700093D0089
:1003000000127A00001BB70080B582B000AF034630
:10031000FB7100BFFB791846054B9847034683F0F5
:100320000103DBB2002BF5D100BF0837BD4680BD0D
:100330002502400080B586B000AFF8607A603B606F
:100340000B46FB727B68002B07D13B68002B04D166
:10035000FB684FF470021A6019E0FB7A18460E4BE6
:10036000984702467B68B2FBF3F37B617B693A688E
:1003700002FB03F37B613B68013B1A04074B13400C
:100380007A68D2B2134343F47C52FB681A6000BF10
:100390001837BD4680BD00BF950240000000FF0732
:1003A00080B582B000AF786039603B68002B08D11F
:1003B000094B9847094A7B681B6843F000539362D6
:1003C00005E0064A7B681B6843F48033D36100BFB5
:1003D0000837BD4680BD00BFA90C400000060E4096
:1003E00080B582B000AF78607B68002B03D1054BED
:1003F0009847034602E0044B9847034618460837DF
:10040000BD4680BDC50C4000E10C400080B582B007
:1004100000AF0346FB71FB79033B042B08D8FB7943
:100420001846064B9847FB791846054B984700E05D
:1004300000BF00BF0837BD4680BD00BF9D01400022
:100440000903400080B582B000AF786000BF7868D3
:10045000044B98470346002BF9D000231846083771
:10046000BD4680BDE103400080B500AF0620054BCE
:100470009847024613469B0013449A0013441846BB
:1004800080BD00BF9502400080B500AF024B984789
:100490000346184680BD00BF6904400090B583B094
:1004A00000AF1348134B98470620134B9847381D4D
:1004B000192301220621114CA0473B1D002118469B
:1004C0000F4B984700200F4B984702200E4B984740
:1004D00000200E4B98470E4B98470E4B984703460B
:1004E0001846044B984700BF0C37BD4690BD00BF6F
:1004F00000A3E111251340000D0440003503400026
:10050000A103400045044000390A4000B50A4000FC
:10051000B91140008904400080B485B000AFF86094
:10052000B9607A607B68002B03D0FB68BA685A66B2
:1005300002E0FB68BA681A6600BF1437BD465DF872
:10054000047B704780B483B000AF786039607B680B
:100550003A681A6300BF0C37BD465DF8047B7047EC
:1005600080B483B000AF786039607B683A685A63C2
:1005700000BF0C37BD465DF8047B704780B487B080
:1005800000AFF860B9607A60FB687A685A64BB684B
:10059000B3F1C05F4AD0B3F1C05F08D8B3F1006FC8
:1005A00016D0B3F1805F2CD0002B69D064E0B3F19A
:1005B000205F65D0B3F1205F03D8B3F1005F4AD06C
:1005C0005AE0B3F1405F5BD0B3F1605F58D053E0C5
:1005D000FB681B6F7B61FB681A6F7B68D9437B6983
:1005E0000B401A40FB681A67FB685B6F7B61FB6816
:1005F0005A6F7B68D9437B690B401A40FB685A6786
:100600003AE0FB681B6F7B617A687B691A43FB6881
:100610001A67FB685B6F7B61FB685A6F7B68D94325
:100620007B690B401A40FB685A6725E0FB681B6F2B
:100630007B61FB681A6F7B68D9437B690B401A406A
:10064000FB681A67FB685B6F7B617A687B691A439A
:10065000FB685A6710E0FB681B6F7B617A687B69F7
:100660001A43FB681A67FB685B6F7B617A687B697A
:100670001A43FB685A6700BFFB687A685A6000E05B
:1006800000BF1C37BD465DF8047B704780B584B061
:1006900000AFF860B9607A60B968F868194B98479C
:1006A0007B6803F001031A46B968F868164B98474F
:1006B0007B6803F00A03002B03D0FB68BA681A6258
:1006C00002E0FB68BA685A627B6803F00203002B01
:1006D00004D0FB68BA68C3F8802008E07B6803F0A8
:1006E0000803002B03D0FB68BA68C3F88420FB68BA
:1006F000BA685A61FB68BA681A6000BF1037BD4615
:1007000080BD00BF210840001905400080B584B0BD
:1007100000AFF860B9607A603B60B968F868124B66
:100720009847BA69B968F868104B98473B68002B3E
:1007300003D0FB68BA681A6502E0FB68BA685A65BC
:100740007B68002B03D0FB68BA681A6302E0FB6881
:10075000BA685A63FB68BA681A61FB68BA681A60BB
:1007600000BF1037BD4680BD21084000190540007C
:1007700080B483B000AF786039607B689A6B3B6867
:100780001340002B01D1002300E0012318460C3751
:10079000BD465DF8047B704780B485B000AFF8605B
:1007A000B9607A607B6803F01003002B20D0FB68EF
:1007B000BA68C3F8B0207B6803F02003002B04D094
:1007C000FB68BA68C3F8D42003E0FB68BA68C3F8D2
:1007D000D0207B6803F04003002B04D0FB68BA688C
:1007E000C3F8C02008E0FB68BA68C3F8C42003E07F
:1007F000FB68BA68C3F8B42000BF1437BD465DF883
:10080000047B704780B483B000AF786039607B6848
:100810003A681A6400BF0C37BD465DF8047B704728
:1008200080B483B000AF786039607B683A685A64FE
:1008300000BF0C37BD465DF8047B704780B483B0C1
:1008400000AF78607B68DB6C18460C37BD465DF8FE
:10085000047B704780B483B000AF78607B689B6C8A
:1008600018460C37BD465DF8047B704780B584B0F0
:1008700000AF786039607868264B9847F8607868F0
:10088000254B98470246FB681340FB60FB68002B32
:100890003CD00023BB6034E0204ABB681B011344FA
:1008A0001A683B689A4226D11C4ABB681B01134454
:1008B00004331A68FB681340002B1CD0174ABB682E
:1008C0001B0113440C331B681449BA6812010A4413
:1008D00010681249BA6812010A44043212681146BB
:1008E00098470E4ABB681B01134404331B68DB4363
:1008F000FA681340FB60BB680133BB60BB68062B22
:1009000003D8FB68002BC7D100E000BF00BF103741
:10091000BD4680BD3D084000550840004C044020C5
:1009200080B586B000AFF860B9607A603B60214B5B
:100930001B68062B01D9012338E00023FB7511E069
:10094000FB7D1B011C4A13443B613B691A68BB6871
:100950009A4204D13B695A687B689A4208D0FB7D71
:100960000133FB75FA7D134B1B689A42E8D900E00E
:1009700000BF3B69BA681A603B697A685A603B6994
:100980003A689A603B693A6ADA60FA7D094B1B68FB
:1009900001339A4204D1074B1B680133054A1360A7
:1009A0003A687968F868054B984700231846183765
:1009B000BD4680BDBC0440204C0440209907400047
:1009C00080B500AF0A210248024B984700BF80BDA6
:1009D000000E0E406D08400080B500AF0B210248AC
:1009E000024B984700BF80BD00100E406D084000CC
:1009F00080B500AF0C210248024B984700BF80BD74
:100A000000120E406D08400080B500AF1021024872
:100A1000024B984700BF80BD00140E406D08400097
:100A200080B500AF11210248024B984700BF80BD3E
:100A300000160E406D08400080B483B000AF7860AF
:100A40007B68013B032B1AD801A252F823F000BFA8
:100A5000610A4000670A40006F0A4000770A4000C0
:100A600000237B600EE04FF480737B600AE04FF45C
:100A700040737B6006E04FF400737B6002E000236C
:100A80007B6000BF0A490A4B1B6B23F440727B68F2
:100A900013430B6300BF064B9B6E03F00803002B50
:100AA000F9D000BF0C37BD465DF8047B704700BF2E
:100AB00000060E4080B485B000AF78601D491D4B24
:100AC0001B6B23F070027B6813430B634FF480535E
:100AD000FB6007E0FB68002B01D1012323E0FB68EA
:100AE000013BFB60134B9B6E03F00803002BF1D01E
:100AF000104A104B1B6B23F0030343F002031363F4
:100B00004FF48053FB6007E0FB68002B01D1012309
:100B100009E0FB68013BFB60064B9B6E03F008039A
:100B2000002BF1D0002318461437BD465DF8047B36
:100B3000704700BF00060E4080B483B000AF7860FD
:100B40007B68012B05D10749064B9A68064B134376
:100B50008B60044B054A1A6000BF0C37BD465DF838
:100B6000047B704710180E40000010A5080000A577
:100B700080B400AF094B5B6903F08003002B07D002
:100B8000074B9B6E03F08003002B01D0012300E094
:100B900000231846BD465DF8047B704710180E40D0
:100BA00000060E4080B483B000AF78601549154B45
:100BB0001A6A154B13430B6200BF124B9B6E03F472
:100BC0000033002BF9D00F490E4B1A6A0F4B13401C
:100BD0007A68134343F45C130B6200BF094B9B6EAE
:100BE00003F40033002BF9D00649064B1A6A084B70
:100BF000134043F45C130B6200BF0C37BD465DF835
:100C0000047B704700060E40080037008FFFC8FFC6
:100C1000FFFFC8FE80B483B000AF786039607B68A6
:100C2000002B08D01349134B1B6A134A1A40134B6D
:100C300013430B6218E00F490E4B1A6A104B134016
:100C40003A68120292B21A430E4B13430B6200BF72
:100C5000084B9B6E03F00103002BF9D00549054BAF
:100C60001A6A094B13430B6200BF0C37BD465DF88F
:100C7000047B704700060E40FCFFC8FE02003701EF
:100C8000FCFFC8FF010037000000370180B400AF4F
:100C9000044B9B6E03F480331846BD465DF8047B1D
:100CA000704700BF00060E4080B400AF044B4FF009
:100CB00000529A6200BFBD465DF8047B704700BFDA
:100CC00000060E4080B400AF044B9B6E03F002039D
:100CD0001846BD465DF8047B704700BF00060E4015
:100CE00080B400AF044B9B6E03F040031846BD4632
:100CF0005DF8047B704700BF00060E4080B483B0EF
:100D000000AF78607B683F2B01D901232FE07B681F
:100D10001F2B13D8194B9A6901217B6801FA03F341
:100D20001A4001217B6801FA03F39A421ED0134A4C
:100D300001217B6801FA03F3136117E07B68203B14
:100D40007B600E4BD3F8082101217B6801FA03F385
:100D50001A4001217B6801FA03F39A4206D0074A40
:100D600001217B6801FA03F3C2F800310023184621
:100D70000C37BD465DF8047B704700BF00060E408F
:100D800080B483B000AF786039607B685B6903F042
:100D90000103002B01D1012305E07B689B69DAB2D6
:100DA0003B681A70002318460C37BD465DF8047B7B
:100DB000704700BF80B489B000AFF860B9607A6056
:100DC000BB681A017B689A4202D81023FB6101E0DC
:100DD0000823FB617B68DA00FB69B96801FB03F358
:100DE0005B081A44FB69B96801FB03F3B2FBF3F338
:100DF000BB61BB69DB087B61BB6903F007033B6137
:100E00007B69002B03D07B69B3F5803F01D30123BD
:100E10000FE0FB69082B05D1FB685B6843F40022F7
:100E2000FB685A603B691A047B691A43FB681A62C3
:100E3000002318462437BD465DF8047B704700BF89
:100E400080B582B000AF786078680D4B98477B68BA
:100E500000225A607B6800225A627B6800229A62F4
:100E60007868084B98477868074B98477868074B2D
:100E700098477868064B984700BF0837BD4680BD45
:100E800059104000350F40006D0F4000BD0F40006D
:100E9000D90F400080B584B000AFF860B9607A60C7
:100EA000F8681A4B98471A4B00221A60BB68002B4F
:100EB00009D0BB681B687A681946F868154B9847D3
:100EC0000346002B01D001231BE0BB685A68BB68B6
:100ED0009B681A43BB681B691A43BB68DB681A43EB
:100EE0000B4B1B6813430A4A1360094B1B68084AE3
:100EF0001360FB685A68064B1B681A43FB685A600C
:100F0000002318461037BD4680BD00BF410E40008B
:100F1000C0044020B50D400080B483B000AF7860BD
:100F20007B6840221A6000BF0C37BD465DF8047B29
:100F3000704700BF80B483B000AF78607B688822C0
:100F40001A6000BF0C37BD465DF8047B704700BFD8
:100F500080B483B000AF78607B6810221A6000BF55
:100F60000C37BD465DF8047B704700BF80B483B08A
:100F700000AF78607B6824221A6000BF0C37BD4642
:100F80005DF8047B704700BF80B483B000AF786029
:100F900039607B683A689A6000BF0C37BD465DF8DF
:100FA000047B704780B483B000AF78607B685B6976
:100FB00018460C37BD465DF8047B704780B483B09B
:100FC00000AF78607B684FF480721A6000BF0C3706
:100FD000BD465DF8047B704780B483B000AF786095
:100FE0007B684FF400221A6000BF0C37BD465DF8E5
:100FF000047B704780B483B000AF7860396000BF75
:101000007B685B6903F00203002BF9D03B68C3F3F4
:1010100008027B68DA61002318460C37BD465DF88C
:10102000047B704780B483B000AF786039607B6820
:101030005B6903F00103002B01D1012306E07B680B
:101040009B69C3F308023B681A60002318460C37FB
:10105000BD465DF8047B704780B483B000AF786014
:101060007B68044AC3F8E42000BF0C37BD465DF836
:10107000047B70470041535580B483B000AFEFF359
:1010800010837B607B68002B0CBF01230023DBB245
:101090003B6072B6BFF35F8F044B00221A703B684F
:1010A00018460C37BD465DF8047B704700004020B1
:1010B00080B483B000AF78607B68002B14BF01233D
:1010C0000023DBB218460C37BD465DF8047B704741
:1010D00080B582B000AF78607868074B98470346C8
:1010E000002B05D0054B01221A70BFF35F8F62B64B
:1010F00000BF0837BD4680BDB11040000000402051
:1011000080B584B000AF1E4BFB601E4BBB60FA681D
:10111000BB689A420CD007E0BB681A1DBA60FA6837
:10112000111DF96012681A60BB68174A9342F3D325
:10113000164BBB6004E0BB681A1DBA6000221A603F
:10114000BB68134A9342F6D3124BFB60124AFB680A
:1011500023F07F039360114B98477860104A104B3F
:101160001B6843F470031360BFF34F8FBFF36F8F9F
:1011700078680C4B98470C4B98470C4B9847FEE708
:10118000401A40000000402030044020300440203D
:10119000900540200000400000ED00E07910400084
:1011A00088ED00E0D1104000D9184000A51840009B
:1011B00080B400AFFEE700BF80B400AF524B1B6BA2
:1011C00003F00303012B14D0012B02D3022B38D0E0
:1011D0007AE04E4B5B6903F08003002B04D04C4B4C
:1011E0004FF400421A606FE0494B4FF4FA421A6024
:1011F0006AE0454B1B6A03F08073002B03D0444B1D
:10120000444A1A6060E0424B434A1A603E4B1B6AF4
:1012100003F07003102B04D0202B08D0002B0ED02D
:101220000EE03B4B1B685B00394A136008E0384B0B
:101230001A6813465B001344354A136000E000BF90
:1012400042E0314B1B6A03F08073002B03D0304B1C
:10125000304A1A601CE02E4B2F4A1A602A4B1B6A38
:1012600003F07003102B04D0202B08D0002B0ED0DD
:101270000EE0274B1B685B00254A136008E0244BF7
:101280001A6813465B001344214A136000E000BF54
:101290001D4B1B6B03F00303022B14D11A4B9A6AEC
:1012A0001E4B13401B0C0133194A126802FB03F357
:1012B000174A1360144B9B6ADBB2154A1268B2FBE3
:1012C000F3F3134A136000BF0F4B1B6B03F0700363
:1012D000702B08D10E4B1B68114AA2FB03235B083D
:1012E0000B4A13600AE0084B1B6B03F070031B09E9
:1012F000074A126822FA03F3054A136000BFBD468D
:101300005DF8047B704700BF00060E4010180E40C9
:1013100004004020001BB70000093D000000FF074B
:10132000ABAAAAAA80B483B000AF78607B68194AE0
:10133000934204D8184B4FF080621A6023E07B6818
:10134000164A934203D8144B154A1A601BE07B6877
:10135000144A934203D8104B134A1A6013E07B6877
:10136000124A934203D80C4B114A1A600BE07B6877
:10137000104A934204D8084B4FF004221A6002E04E
:10138000054B0D4A1A6000BF0C37BD465DF8047B63
:10139000704700BFFF2C3101000C0E40FF59620264
:1013A00000010004FF86930300020004FFB3C4049D
:1013B00000030004FFE0F5050005000480B483B0DD
:1013C00000AF0346FB71094997F907305B09FA79C9
:1013D00002F01F02012000FA02F241F8232000BFB0
:1013E0000C37BD465DF8047B704700BF00E100E0AC
:1013F00080B483B000AF03463960FB7197F90730C2
:10140000002B0BDA0D49FB7903F00F03043B3A681C
:10141000D2B25201D2B20B441A7609E0084997F9C8
:1014200007303A68D2B25201D2B20B4483F800239B
:1014300000BF0C37BD465DF8047B704700ED00E04F
:1014400000E100E080B483B000AF78607B68072BD8
:1014500025D801A252F823F0791440007F144000EF
:10146000851440008B1440008F14400093144000FA
:10147000971440009B1440004FF4FA4310E04FF4DF
:1014800000430DE04FF400430AE0084B08E0084B2E
:1014900006E0084B04E0074B02E0064B00E00023A7
:1014A00018460C37BD465DF8047B704700093D00C7
:1014B00000127A00001BB70080B500AF0620054B74
:1014C0009847024613469B0013449A00134418465B
:1014D00080BD00BF4514400080B500AF024B984767
:1014E00003465B08184680BDB914400080B582B041
:1014F00000AF78607868034B984700BF0837BD4657
:1015000080BD00BFFD0C400080B584B000AF7860A6
:1015100039600023FB607B68344A934207D100BFE7
:1015200039687868324B98470346002BF8D17B68BE
:10153000304A934207D100BF396878682C4B9847EE
:101540000346002BF8D17B682B4A934207D100BF9A
:1015500039687868264B98470346002BF8D17B689A
:10156000264A934207D100BF39687868204B9847D4
:101570000346002BF8D17B68214A93420DD100BF6E
:1015800007F10C03194678681E4B98470346002B59
:10159000F6D1FB68DAB23B681A707B681A4A93424C
:1015A0000DD100BF07F10C0319467868154B984719
:1015B0000346002BF6D1FB68DAB23B681A707B68F1
:1015C000124A93420DD100BF07F10C031946786807
:1015D0000C4B98470346002BF6D1FB68DAB23B6808
:1015E0001A7000BF1037BD4680BD00BF00080E4016
:1015F000810D4000000A0E40001A0E40001C0E40F3
:1016000000400240251040000080024000C002401F
:1016100080B582B000AF786039604FF080510648E5
:10162000064B98474FF480710548044B984700BF1C
:101630000837BD4680BD00BF00140E40B9164000FB
:1016400000120E4080B582B000AF1548154B984788
:1016500078607B6803F00103002B1DD0FB1C19464A
:101660000F48114B9847FB780A2B0BD10F4B1B6887
:101670000F4A0021D1540E480E4B98470B4B0022C5
:101680001A6009E0094B1B68F978094AD154074BE5
:101690001B680133054A136000BF0837BD4680BD93
:1016A00000800240A50F400009154000C4044020FE
:1016B000C80440205D18400080B582B000AF78605B
:1016C000396039687868094B98470346002B04D085
:1016D00039687868064B984703E039687868054BA5
:1016E000984700BF0837BD4680BD00BF7107400066
:1016F000610540004505400090B583B002AF0A2067
:10170000104B984709224FF400610F480F4B984740
:101710004FF400610C480E4B98470E4B009350233A
:101720004FF400620A2108480B4CA0470A200B4BDB
:10173000984701210A200A4B984700BF0437BD464D
:1017400090BD00BFFD0C4000000E0E408D06400015
:10175000050840001116400021094000BD1340005B
:10176000F113400090B585B002AF78600C20074BB4
:1017700098477A680023009300234FF4807104484F
:10178000044CA04700BF0C37BD4690BDFD0C400087
:1017900000120E400D07400080B586B000AF0B2050
:1017A000224B98470A20214B984710224FF00051B6
:1017B0001F48204B98474FF400124FF000611E481D
:1017C0001C4B98471D4A1D4BD3F8143143F01003AE
:1017D000C2F814313B4600221A605A609A60DA60FF
:1017E0001A615A614FF4E1333B60C0237B604FF4D0
:1017F0000063BB600E200D4B9847114B9847024683
:101800003B4619460F48104B98470E480F4B9847D8
:101810000C480F4B984701210A480E4B98470E2061
:101820000D4B984700BF1837BD4680BDED144000F2
:1018300000100E407D054000000E0E400080084064
:10184000D914400000800240950E4000190F40005E
:10185000510F4000890F4000BD13400080B584B097
:1018600000AF78600023FB600BE07B681B781946B3
:101870000A480B4B9847FB680133FB607B680133D8
:101880007B607B681B78002BEFD10A210348044B57
:101890009847FB6818461037BD4680BD008002405F
:1018A000F50F400080B500AF064B9847064B4FF44C
:1018B00000425A600120054B9847054B9847054B5D
:1018C0009847FEE79D04400050180E406517400001
:1018D000F91640009917400070B50F4E0F4D761B5A
:1018E000B61018BF002405D0013455F8043B9847C2
:1018F000A642F9D10A4E0B4D761B00F08FF8B610B8
:1019000018BF002406D0013455F8043B9847A6427E
:10191000F9D170BD70BD00BF281A4000281A4000E0
:10192000301A4000281A4000024B13B1024800F060
:1019300005B8704700000000491940000023014627
:101940001A46184600F014B838B5074D074C2C1B42
:10195000A41005D0013C55F8043D9847002CF9D15E
:10196000BDE8384000F064B8401A40003C1A40001E
:101970002DE9F047254C2568D5F8484106468846AC
:1019800092469946C4B360681F2817DC431C76B1A1
:1019900004EB80050122C5F888A0D4F888118240A4
:1019A0001143022EC4F88811C5F808911ED00230E8
:1019B000636044F820800020BDE8F087144B03B337
:1019C0004FF4C870AFF300800446D0B1D5F8483169
:1019D000002780E88800C5F8484138460123C4F84C
:1019E0008871C4F88C71002EE1D0D1E7D4F88C1145
:1019F0000A43C4F88C21DAE705F5A674C5F8484116
:101A0000C1E74FF0FF30BDE8F08700BF181A400073
:101A1000000000004300000008004020F8B500BFAF
:101A2000F8BC08BC9E46704729194000650140007B
:101A3000F8B500BFF8BC08BC9E46704741014000A5
:101A40000100000000093D0000000000F4024020F9
:101A50005C034020C40340200000000000000000A0
:101A60000000000000000000000000000000000076
:101A7000000000000000000000000000141A4000F8
:101A80000000000000000000000000000000000056
:101A90000000000000000000000000000000000046
:101AA0000000000000000000000000000000000036
:101AB0000000000000000000000000000000000026
:101AC0000000000000000000000000000000000016
:101AD0000000000000000000000000000000000006
:101AE00000000000000000000000000000000000F6
:101AF00001000000000000000E33CDAB34126DE693
:101B0000ECDE05000B0000000000000000000000FB
:101B100000000000000000000000000000000000C5
:101B200000000000000000000000000000000000B5
:101B300000000000000000000000000000000000A5
:101B40000000000000000000000000000000000095
:0400000500401101A5
:00000001FF
