:020000040040BA
:100000007830402059674000096840000968400086
:1000100009684000096840000968400000000000CD
:10002000000000000000000000000000096840001F
:1000300009684000000000000968400009684000AD
:1000400009684000096840000968400009684000EC
:1000500009684000096840000968400009684000DC
:100060000968400000000000B15B4000C95B40002F
:10007000E15B4000096840000968400009684000F1
:10008000F95B4000115C40000968400009684000CD
:10009000096840000968400009684000096840009C
:1000A000096840000968400009684000096840008C
:1000B000096840000968400009684000096840007C
:1000C000096840000968400009684000096840006C
:1000D00000000000096840000000000009684000BE
:1000E000096840000968400009684000096840004C
:1000F000096840000968400009684000096840003C
:10010000096840000968400009684000096840002B
:10011000096840000000000000000000000000002E
:10012000096840000968400009684000096840000B
:1001300009684000000000000968400009684000AC
:1001400010B5054C237833B9044B13B10448AFF311
:1001500000800123237010BD24094020000000000E
:1001600078F14000084B10B51BB108490848AFF3BF
:1001700000800848036803B910BD074B002BFBD073
:10018000BDE81040184700BF0000000028094020CB
:1001900078F1400078F140000000000080B483B0A6
:1001A00000AF0346FB71094997F907305B09FA79FB
:1001B00002F01F02012000FA02F241F8232000BFE2
:1001C0000C37BD465DF8047B704700BF00E100E0DE
:1001D00080B483B000AF78607B68072B25D801A27C
:1001E00052F823F0050240000B02400011024000CB
:1001F000170240001B0240001F0240002302400083
:10020000270240004FF4FA4310E04FF400430DE0A2
:100210004FF400430AE0084B08E0084B06E0084BA7
:1002200004E0074B02E0064B00E0002318460C37C1
:10023000BD465DF8047B704700093D0000127A005E
:10024000001BB70080B500AF0620054B984702465B
:1002500013469B0013449A001344184680BD00BF08
:10026000D101400080B500AF024B984703461846C5
:1002700080BD00BF4502400080B582B000AF78600D
:100280007868034B984700BF0837BD4680BD00BF64
:10029000715F400080B500AF0A20084B98470B20E3
:1002A000064B98470C20054B98471020034B984766
:1002B0001120024B984700BF80BD00BF790240006B
:1002C00080B48DB000AF78600B46FB707B68FB623A
:1002D000FB7887F82B30FB6A7B627B6A3B623B6A68
:1002E0005B09FB61FA69174B13445B02BB6197F82A
:1002F0002B30012B09D1FB6A7B617B6903F01F0363
:1003000001229A40BB691A610CE097F82B30002B50
:1003100008D1FB6A3B613B6903F01F0301229A404D
:10032000BB695A61FB6AFB60FB6803F01F03012293
:100330009A40BB69C3F8A02000BF3437BD465DF8C2
:10034000047B70470707200080B48BB000AF786053
:100350000B46FB707B687B62FB7887F823307B6AF7
:10036000FB61FB69BB61BB695B097B617A69104B0F
:1003700013445B023B6197F82330002B09D07B6A62
:10038000FB60FB6803F01F0301229A403B691A637C
:1003900008E07B6ABB60BB6803F01F0301229A4040
:1003A0003B695A6300BF2C37BD465DF8047B70473C
:1003B0000707200080B582B000AF786039607B68A5
:1003C000102B0AD13B68B3F1805F06D1054B1B6847
:1003D000002B02D0034B1B68984700BF0837BD466F
:1003E00080BD00BF4009402080B500AF0D4B98474D
:1003F000012123200C4B9847012123200B4B9847C8
:1004000001215120084B984701215120074B984763
:1004100001212220044B984701212220034B9847B9
:1004200000BF80BD95024000C1024000490340006A
:1004300080B500AF084B00221A60084B9847084B64
:100440001B6803F00103002B01D0054B1B68054B13
:1004500098470023184680BD40094020E90340002A
:1004600010E000E06904400080B500AF0021512099
:100470000C4B9847002123200A4B984764200A4BD5
:10048000984701215120074B98476420064B984715
:1004900001212320034B98476420034B984700BF5A
:1004A00080BD00BF49034000AD044000F0B583B0FB
:1004B00000AF78601CE0134B984703461A464FF094
:1004C00000039D0045EA9275940041F22B724FF0B3
:1004D0000003A01845EB03010B4E41F22C724FF0C4
:1004E0000003B04702460B4613461846074B984791
:1004F0007B685A1E7A60002BDDD100BF0C37BD46E9
:10050000F0BD00BF650240006D7540000100402055
:1005100090B585B002AF7860154A7B6813601020F3
:10052000144B98474FF020517C20134B98470122E1
:100530004FF080511148124B9847124B00935123B2
:100540004FF0805210210D480F4CA0474FF08051C2
:100550000A480E4B984710200D4B98470022102157
:1005600006480C4B984700BF0C37BD4690BD00BFF6
:1005700040094020715F40009557400000140E4034
:10058000A1544000B5034000115B40002D574000CE
:100590009D014000295C400080B582B000AF034659
:1005A000FB71FB79002B05D04FF080510648074BBB
:1005B000984704E04FF080510348054B984700BF2F
:1005C0000837BD4680BD00BF00140E402D574000C7
:1005D0004957400080B483B000AF78607B68072B38
:1005E00025D801A252F823F0090640000F0640006A
:1005F000150640001B0640001F0640002306400071
:10060000270640002B0640004FF4FA4310E04FF459
:1006100000430DE04FF400430AE0084B08E0084BAC
:1006200006E0084B04E0074B02E0064B00E0002325
:1006300018460C37BD465DF8047B704700093D0045
:1006400000127A00001BB70080B500AF0620054BF2
:100650009847024613469B0013449A0013441846D9
:1006600080BD00BFD505400080B500AF024B984764
:100670000346184680BD00BF4906400080B489B0DB
:1006800000AF78607B68FB61FB69BB61BB695A099D
:10069000FB697B617B6903F01F03012101FA03F30E
:1006A0003A61FB603B69BB60BA68064B13445B026E
:1006B0001A46FB68536000BF2437BD465DF8047BD3
:1006C000704700BF0707200080B48DB000AF78608E
:1006D00039607B68FB623B68BB62FB6A7B627B6A5A
:1006E0005A09FB6A3B623B6A03F01F03012101FACE
:1006F00003F3FA61BB61BB6A7B61FB693B613A69E9
:10070000374B13445B02FB607B6903F00803002B4B
:1007100003D0FB68BA695A6602E0FB68BA691A66D8
:100720007B6903F01003002B04D0FB68BA69C3F89F
:10073000942003E0FB68BA69C3F890207B6903F05A
:100740002003002B03D0FB68BA691A6502E0FB683E
:10075000BA695A657B6903F0C003002B03D0FB68BC
:10076000BA691A6202E0FB68BA695A627B6903F0EF
:100770008003002B04D0FB68BA69C3F8842003E02F
:10078000FB68BA69C3F880207B6903F00103002B82
:1007900006D0FB681A6FBB691A43FB681A6706E04C
:1007A000FB681A6FBB69DB431A40FB681A677B69F9
:1007B00003F00203002B06D0FB685A6FBB691A4393
:1007C000FB685A6706E0FB685A6FBB69DB431A4057
:1007D000FB685A6700BF3437BD465DF8047B70473D
:1007E0000707200080B48DB000AF78600B46FB7027
:1007F0007B68FB62FB7887F82B30FB6A7B627B6A45
:100800003B623B6A5B09FB61FA69174B13445B026D
:10081000BB6197F82B30012B09D1FB6A7B617B69A7
:1008200003F01F0301229A40BB691A610CE097F89C
:100830002B30002B08D1FB6A3B613B6903F01F039F
:1008400001229A40BB695A61FB6AFB60FB6803F0B6
:100850001F0301229A40BB69C3F8A02000BF3437B0
:10086000BD465DF8047B70470707200080B483B065
:1008700000AF78607B6880221A6000BF0C37BD46ED
:100880005DF8047B704700BF80B483B000AF786030
:100890007B6801221A6000BF0C37BD465DF8047BFF
:1008A000704700BF80B483B000AF78607B680222DD
:1008B0001A6000BF0C37BD465DF8047B704700BF6F
:1008C00080B483B000AF78607B685B6843F001025E
:1008D0007B685A6000BF0C37BD465DF8047B7047EB
:1008E00080B483B000AF78607B685B6843F010022F
:1008F0007B685A6000BF0C37BD465DF8047B7047CB
:1009000090B589B000AFF860B9601346FB80002352
:10091000FB760023FB770023BB770023BB830023F8
:100920003B83FB68002B05D107F11B03FB60012310
:10093000FB770BE0BB68002B05D107F11B03BB6005
:100940000123BB7702E06FF0050330E01A4B4FF054
:1009500000725A6323E0FB681B78BB83B98B0023CA
:1009600000221648164CA04707F1170207F118039A
:1009700019461248134B98473B8BDAB2BB681A7082
:10098000FB88013BFB80BB7F002B02D1BB6801339E
:10099000BB60FB7F002B02D1FB680133FB60FB884F
:1009A000002BD8D1044B4FF000721A630023184675
:1009B0002437BD4690BD00BF00140E4000800040AB
:1009C00019614000A960400090B585B000AF786023
:1009D0000023FB7301217420334B984701217520BC
:1009E000314B9847012176202F4B984774202F4B8D
:1009F000984775202D4B984776202C4B98477920A7
:100A00002A4B98472A4B4FF000721A60284B4FF040
:100A100000721A61264B4FF000721A632548264B6C
:100A200098472448254B98472248254B984721480A
:100A3000244B98471F48244B984701211D48234BBE
:100A40009847002201211B48214B98470122012190
:100A50001848204B98470022012116481E4B984702
:100A60001E4B9847034619461D481E4B98470346A0
:100A7000DBB21A4601210F481B4B98470023002286
:100A800001210C48194CA0470A48194B9847084BBC
:100A90004FF000721A63174B984797F90F301846BA
:100AA0001437BD4690BD00BFC90640007D0640001A
:100AB00000140E400080004039604000A50840004E
:100AC0006D084000C1084000E1084000756040002A
:100AD00099614000E96140003962400069064000C8
:100AE000006CDC0285624000C1624000216340006E
:100AF000890840006904400080B584B000AF034617
:100B00003960FB710023FB73FB79032B0DD13B682C
:100B1000BB60BB681868BB685968BB681B891A460C
:100B20000C4B98470346FB730EE0FF23FB7340F228
:100B30001F12094909480A4B98470A48084B984729
:100B40000948074B984700BF97F90F3018461037F0
:100B5000BD4680BD0109400064DD400034DD400039
:100B6000D578400048DD400060DD400080B500AF32
:100B70000A480B4B9847002175200A4B98470021E3
:100B80007420084B984700217620064B9847002197
:100B90007920044B98470023184680BD0080004010
:100BA000A5084000E507400080B485B000AFF860BC
:100BB000B9607A607B68002B10D0BB681A78FB683C
:100BC0001A70FB680133FB60BB680133BB607B6854
:100BD000013B7B607B68002BEFD100E000BF143746
:100BE000BD465DF8047B704780B485B000AFF86007
:100BF0000B467A60FB727B68002B0CD0FB68FA7A9C
:100C00001A70FB680133FB607B68013B7B607B688B
:100C1000002BF3D100E000BF1437BD465DF8047B24
:100C2000704700BF80B485B000AF78600023FB81BF
:100C300005E0FB890133FB817B6801337B607B68C6
:100C40001B78002BF5D1FB8918461437BD465DF89B
:100C5000047B704780B400AF054B1B78DBB20133D7
:100C6000DAB2034B1A7000BFBD465DF8047B7047D3
:100C70004709402080B582B000AF0023FB710120FE
:100C8000124B98473B46194641F27000104B98476B
:100C90000346FB7197F90730002B0FD13B6843F0F7
:100CA00002033B603B68194641F27000094B9847CC
:100CB0000346FB7197F90730002B00E000BF97F95E
:100CC000073018460837BD4680BD00BF9905400073
:100CD000252C4000452C400080B483B000AF034673
:100CE0003A60FB710B46BB8000BF0C37BD465DF818
:100CF000047B704780B582B000AF0023FB711A4BB4
:100D00001B78DBB2002B1DD1184B1B78DBB2032BF9
:100D100004D0164B1B78DBB2042B13D1144B98472D
:100D20000346FB7197F90730002B13D145F2786128
:100D300041F274000F4B98470346FB7197F9073057
:100D4000002B09D1084B1B78DBB20133DAB2064B1A
:100D50001A7002E000BF00E000BF97F907301846A4
:100D60000837BD4680BD00BF4509402044094020EA
:100D700031244000452C400080B582B000AF0023F4
:100D8000FB71274B1B78DBB2002B06D0244B1B7862
:100D9000DBB2013BDAB2224B1A70214B1B78DBB27B
:100DA000002B36D11F4B1B78DBB2032B04D01D4B1D
:100DB0001B78DBB2042B2CD100233B6044F22131A1
:100DC00041F27400184B98470346FB7197F90730BE
:100DD000002B1BD13B4619460120144B9847034674
:100DE000FB7197F90730002B12D13B6803F0020327
:100DF000002B0ED03B6823F002033B603B68194692
:100E00000120094B98470346FB7102E000BF00E058
:100E100000BF97F9073018460837BD4680BD00BFB0
:100E20004509402044094020452C4000252C400025
:100E300080B582B000AF78600D4B00221A600D4B78
:100E400000221A600C4B00221A700C4B00221A7000
:100E50000B4B00221A700B480B4B98470B49032091
:100E60000B4B9847002318460837BD4680BD00BF8E
:100E7000480940204C0940204509402044094020B1
:100E800047094020550C400011054000D90C400096
:100E90005D16400080B588B000AF3A601A46034640
:100EA000FB710B46BB711346BB80FF23FB77BB79FD
:100EB00003F07F03DBB27B76FB793B7608237B83F1
:100EC000BB6A002B09D07B8B9AB2398EBB8D0B4449
:100ED0009BB213449BB27B8305E07B8B9AB2BB88A9
:100EE00013449BB27B83774B98470346FB7797F974
:100EF0001F30002B40F0C58000233B610023FB81A5
:100F000000237B61FA797B6913437B61BB791A0209
:100F10007B6913437B617B8B9BB21A047B69134310
:100F20007B617B69194641F28C00674B9847034609
:100F3000FB7797F91F30002B40F0B58000237B61D1
:100F40007B6943F002037B617B69194641F27800BB
:100F50005D4B98470346FB7797F91F30002B40F015
:100F6000A48000233B610023FB8125E007F11403EB
:100F7000194641F27800554B98470346FB7797F99D
:100F80001F30002B1ED17B6903F00203002B0ED112
:100F900007F1100319464E484C4B98470346FB7720
:100FA00097F91F30002B0FD000233B610CE0FB8929
:100FB0009BB201339BB2FB81FB899BB2B3F57A7F75
:100FC000D4D302E000BF00E000BF3B69002B55D046
:100FD0003B69BB607B8B9BB27B83BB6807F11801CD
:100FE000082218463B4B98470346FB7797F91F307A
:100FF000002B5CD1BB680833BB603B68002B0FD073
:10100000BB68BA8839681846324B98470346FB7765
:1010100097F91F30002B4CD1BA88BB681344BB60D2
:10102000BB6A002B16D03A8EBB88D31A1A46BB680F
:101030001344BB60BB68BA8DB96A1846254B984704
:101040000346FB7797F91F30002B34D1BA8DBB686C
:101050001344BB603B699B007B617B6943F00203E7
:101060007B617B69194641F26C00174B9847034638
:10107000FB7797F91F30002B10D01DE0FD23FB7785
:101080001AE040F29F1214491448154B984715482E
:10109000134B98471448124B98470DE0134B984751
:1010A0000346FB7708E000BF06E000BF04E000BF96
:1010B00002E000BF00E000BF97F91F30184620375C
:1010C000BD4680BDF50C4000452C4000252C40005D
:1010D000000415004D2D4000C0DF400074DD4000CD
:1010E000D578400088DD4000A8DD4000790D400043
:1010F00090B587B002AFFA23FB739E4B9847034627
:10110000FB7397F90F30002B40F07C8107F1080347
:10111000194641F27000984B98470346FB7397F9C4
:101120000F30002B40F06181BB6803F00103002BFE
:1011300000F04C810020914B9847BB6823F00103DD
:10114000BB60BB68194641F270008D4B984703465F
:10115000FB7397F90F30002B40F06681894B00221A
:101160001A70BB689B089BB2C3F30B03BB81BB899E
:10117000002B00F0EF8000233B603B46194641F214
:1011800084007D4B98470346FB7397F90F30002B83
:101190000FD04FF4E7727C497C487D4B98477D48DF
:1011A0007B4B98477C487A4B98470120734B984774
:1011B0003BE13B68391D04221846784B98470346AB
:1011C000FB73FB889BB2FB8097F90F30002B0FD08D
:1011D0004FF4EB726C496D486D4B984770486C4BFF
:1011E00098476D486A4B98470120644B98471CE12B
:1011F000FB889BB2BA899A4222D0BB89FA8892B204
:101200009B1A042B1CDD40F2DF125F495F48604BE4
:101210009847B989FB889BB21A463B79DBB21846DE
:101220007B79DBB2009303465E48594CA0475A488D
:10123000574B98470120514B9847FA23FB73F4E032
:101240003B79DBB2012B0FD1574B1B68002B6BD0C6
:10125000554B1B687A79D0B2FA8892B2083A91B2AB
:101260003A68083298475FE03B79DBB2022B0FD136
:101270004E4B1B68002B57D04C4B1B687A79D0B271
:10128000FA8892B2083A91B23A68083298474BE02D
:101290003B79DBB2042B0FD1454B1B68002B43D0AD
:1012A000434B1B687A79D0B2FA8892B2083A91B26D
:1012B0003A680832984737E03B79DBB2062B0FD10A
:1012C0003C4B1B68002B2FD03A4B1B687A79D0B26D
:1012D000FA8892B2083A91B23A680832984723E005
:1012E0003B79DBB2072B0FD1334B1B68002B1BD094
:1012F000314B1B687A79D0B2FA8892B2083A91B22F
:101300003A68083298470FE040F202221E491F480F
:101310001F4B984729481E4B98471F481C4B98471E
:10132000FA23FB7300BF80E0164B1B78DBB2002B67
:1013300075D140F2092214491448154B98472048AA
:10134000134B98471448124B98471E4B9847034637
:10135000FB7364E0FE23FB7340F211220A490B4841
:101360000B4B984718480A4B98470B48084B98472F
:101370005BE000BFF50C4000252C400099054000C3
:10138000452C400046094020CCDF400074DD400081
:10139000D5784000ACDD4000A8DD40008D2C400039
:1013A000D4DD4000ECDD4000480940204C094020DD
:1013B000500940205C094020540940202CDE4000A8
:1013C00044DE4000750C400068DE40004FF40672B9
:1013D00019491A481A4B9847BB6819461948184BBF
:1013E00098471948164B984719E040F21E221249B7
:1013F0001248134B98471548114B98471248104B09
:10140000984712E04FF409720B490C480C4B98476F
:101410000F480B4B98470C48094B984705E00D4B7C
:1014200098470346FB7300E000BF97F90F3018465A
:101430001437BD4690BD00BFCCDF400074DD4000D6
:10144000D57840007CDE4000A8DD400098DE4000FA
:10145000BCDE4000790D400080B582B000AF0023B3
:10146000FB711FE0154B1B78DBB2013BDAB2134B6B
:101470001A70134B98470346FB7197F90730002BFE
:1014800000D10FE040F243220E490F480F4B98471E
:1014900097F9073019460E480C4B98470D480B4BEF
:1014A0009847E6E7054B1B78DBB2002BDAD197F9BA
:1014B000073018460837BD4680BD00BF47094020A9
:1014C000F1104000D4DF400074DD4000D5784000CA
:1014D000DCDE4000A8DD400080B588B000AFF860D9
:1014E000B96011461A460B46FB8013467B710023F8
:1014F000FB77FB68002B05D0BB68002B02D0FB8874
:10150000002B19D17B79002B07D0494B01221A708F
:10151000484B98470346FB7783E0F423FB7740F280
:10152000692245494548464B98474648444B9847A9
:101530004548434B984774E007F11403194641F2BC
:101540007000424B98470346FB7797F91F30002BFA
:1015500062D17B699B089BB2C3F30B03BB8307F18A
:101560001803194641F28400384B98470346FB772D
:1015700097F91F30002B51D1FA88BB8B9A4211D9B1
:10158000F423FB7740F27A222B492C482C4B9847C6
:10159000FB88BA8B19462E48294B98472A48284B76
:1015A00098473EE0BB69FA689A4207D3FA88FB681D
:1015B0001A44B98BBB690B449A420ED9F423FB77CA
:1015C0004FF420721C491D481D4B984721481C4B65
:1015D00098471D481A4B984723E0FB881A46B9687C
:1015E000F8681D4B98470346FB7797F91F30002B8F
:1015F00016D1BA8BBB691A44F988FB680B449A422E
:1016000002D07B79002B0CD0094B01221A70094BB8
:1016100098470346FB7704E000BF02E000BF00E00C
:1016200000BF97F91F3018462037BD4680BD00BF68
:1016300046094020750C4000E4DF400074DD4000A6
:10164000D57840000CDF4000A8DD4000252C40008C
:101650002CDF400070DF40008D2C400080B584B04E
:1016600000AF03463960FB710023FB73FB79013B3C
:10167000062B29D801A252F823F000BFA116400082
:1016800099164000B1164000A9164000C916400046
:10169000B9164000C1164000174A3B68136024E0A9
:1016A000164A3B68136020E0154A3B6813601CE053
:1016B000144A3B68136018E0134A3B68136014E057
:1016C000124A3B68136010E040F2B92210491148F9
:1016D000114B9847FB79194610480F4B9847104813
:1016E0000D4B9847F423FB7300BF97F90F30184652
:1016F0001037BD4680BD00BF4C094020480940203E
:1017000050094020580940205C09402054094020DD
:10171000F0DF400074DD4000D5784000B4DF4000C9
:10172000A8DD400090B5ADB002AF03463A60FB7152
:101730000B46BB80FB792C2B17D107F19C010023B2
:1017400004223868AF4CA0470346002B40F09F812D
:10175000AD4B1B68002B00F09A81AB4B1B6807F167
:101760009C0211462C20984791E1FB791B2B17D145
:1017700007F19401002308223868A24CA0470346D1
:10178000002B40F08481A04B1B68002B00F07F8170
:101790009D4B1B6807F1940211461B20984776E188
:1017A000FB79062B17D107F10C0101233022386891
:1017B000944CA0470346002B40F06981924B1B6874
:1017C000002B00F06481904B1B6807F10C0211465E
:1017D000062098475BE1FB790E2B00F05881FB79DE
:1017E000322B17D107F18401002310223868854C71
:1017F000A0470346002B40F04A81834B1B68002B17
:1018000000F04581804B1B6807F1840211463220AD
:1018100098473CE1FB792F2B1ED107F10C03642282
:1018200000211846794B984707F10C0100236422E8
:101830003868744CA0470346002B40F02881724B57
:101840001B68002B00F023816F4B1B6807F10C0213
:1018500011462F2098471AE1FB79342B2ED107F13E
:101860008001002304223868664CA0470346002B01
:1018700040F00D816648674B9847D7F88030D9B261
:10188000D7F880301B0ADAB2D7F880301B0CD8B2F8
:10189000D7F880301B0E009303465F485D4CA0478D
:1018A0005E485C4B9847584B1B68002B00F0EF805C
:1018B000554B1B68002134209847E8E0FB79112B39
:1018C0001ED1574B00221A7007F17C01002304221D
:1018D00038684C4CA0470346002B40F0D88097F85E
:1018E0007C20504B1A70484B1B68002B00F0CF80B7
:1018F000454B1B6807F17C02114611209847C6E052
:10190000FB79132B17D107F10C0100232C22386827
:101910003C4CA0470346002B40F0B9803A4B1B6873
:10192000002B00F0B480384B1B6807F10C02114605
:1019300013209847ABE0FB79042B17D107F1A001E6
:101940000023042238682F4CA0470346002B40F0A8
:101950009E802D4B1B68002B00F099802A4B1B6842
:1019600007F1A00211460420984790E0FB79652B0F
:1019700016D107F1A001002304223868214CA047AA
:101980000346002B40F083801F4B1B68002B7ED04A
:101990001D4B1B6807F1A00211466520984776E0B1
:1019A000FB79092B15D107F10C010123642238685A
:1019B000144CA0470346002B69D1134B1B68002B26
:1019C00065D0114B1B6807F10C021146092098479E
:1019D0005DE0FB792A2B27D107F17801012304224E
:1019E0003868084CA0470346002B50D1064B1B68B3
:1019F000002B4CD0044B1B6807F1780211462A20BB
:101A0000984744E0D914400064094020E90B4000A5
:101A100000E04000D57840000CE040002CE04000A1
:101A20006109402060094020FB79202B21D107F17A
:101A30007001002308223868174CA0470346002B8A
:101A400025D13B6803F10800396FB7F874200123F2
:101A5000114CA0470346002B19D1104B1B68002BDB
:101A600015D00E4B1B6807F17002114620209847D5
:101A70000DE04FF495720A490A480B4B9847FB79E1
:101A800019460A48084B98470948074B984700BF32
:101A9000AC37BD4690BD00BFD9144000640940205A
:101AA00040E3400030E04000D578400044E0400092
:101AB0002CE0400080B584B000AF78600023FB7359
:101AC0007B68002B0ED140F2431268496848694B8D
:101AD00098476948674B98476848664B9847F4238E
:101AE000FB73BDE07B681846654B98470346002BA7
:101AF00006D07B681846624B98470346202B0ED9C8
:101B00004FF4A57259495A485A4B98475D48594B6A
:101B100098475A48574B9847F423FB73A0E07B68DB
:101B200093F821300D2B0ED940F251124F495048F5
:101B3000504B984754484F4B984750484D4B984707
:101B4000F423FB738CE07B6893F84130002B18D1B1
:101B50007B6893F84230002B13D17B6893F84330B5
:101B6000002B0ED14FF4AD7240494148414B98478C
:101B70004648404B984741483E4B9847F423FB73F7
:101B80006EE07B6893F83F30012B68D07B6893F858
:101B90003F30032B54D17B6893F82230002B04D0C4
:101BA0007B6893F82230042B0ED940F269122F493A
:101BB0002F48304B984736482E4B98472F482D4B8F
:101BC0009847F423FB734BE07B6893F823300A2B90
:101BD00013D07B6893F823301A2B0ED04FF4B972D0
:101BE00022492348234B98472A48224B98472348A9
:101BF000204B9847F423FB7332E07B682433002B9F
:101C00000FD07B68243318461D4B98470346002BA2
:101C100007D07B6824331846194B984703461A2B84
:101C20001ED940F2791211491148124B98471A48AF
:101C3000104B984711480F4B9847F423FB730FE064
:101C40004FF4C07209490A480A4B98471348094B98
:101C500098470A48074B9847F423FB7300E000BFFE
:101C600097F90F3018461037BD4680BD4CE3400051
:101C700030E04000D578400058E040002CE04000C3
:101C8000250C40006CE040007CE0400088E0400013
:101C9000A0E04000B4E04000C8E04000DCE04000CC
:101CA00090B58DB000AF7860002387F82F30012306
:101CB000FB727B68002B03D1F42387F82F306AE096
:101CC0007B681B68374A1360374B00221A7007F194
:101CD0000B031846354B9847034687F82F3097F982
:101CE0002F30002B54D10020314B9847034687F802
:101CF0002F3097F92F30002B45D12E4901202E4B44
:101D0000984707F10C0318462C4B9847034687F871
:101D10002F302B482B4B98473B7C19467B7C1A462F
:101D2000BB7C2948274CA0472848264B9847244885
:101D3000244B9847FB7C19463B7D1A467B7D244803
:101D4000204CA04721481F4B98471D481D4B9847E2
:101D50000023032213211F481A4CA0471B48194B8C
:101D6000984797F92F3013F10D0F13D140F2D51288
:101D700019491A48134B98471948124B984713486A
:101D8000104B984706E000BF0020164B984702E032
:101D900000BF00E000BF97F92F3018463437BD462A
:101DA00090BD00BF64094020610940200D2F400014
:101DB000310E4000251740005D164000E52D400023
:101DC00000E04000D57840007CE140002CE040007D
:101DD00098E14000B4E1400068E3400030E040009A
:101DE000D0E140003D30400080B582B000AF786067
:101DF000034B9847034618460837BD4680BD00BFD1
:101E00005914400090B587B002AFF8607B600B4674
:101E1000FB721346BB72BA7AF97A002301933B8CAA
:101E200000937B68F868034CA047034618461437B4
:101E3000BD4690BD391E400090B5ABB004AFF86010
:101E40007B600B46FB721346BB72002387F897300A
:101E5000BB7A012B6BD07B68002B0FD140F20322A1
:101E6000AB49AC48AC4B9847AC48AB4B9847AC48F7
:101E7000A94B9847F42387F8973086E1BB7A022B69
:101E800055D17868A74B98470346402B4FD1002384
:101E900087F896307B68C7F8903044E097F8963022
:101EA000D7F8902013441B782F2B27D997F896301A
:101EB000D7F8902013441B78392B07D997F8963020
:101EC000D7F8902013441B78402B17D997F89630F9
:101ED000D7F8902013441B78462B07D997F89630F3
:101EE000D7F8902013441B78602B07D997F89630C9
:101EF000D7F8902013441B78662B0FD940F20F229D
:101F000083498448844B98478748834B9847844843
:101F1000814B9847F42387F8973036E197F896304D
:101F2000013387F8963097F896303F2BB6D9FB7A75
:101F3000002B02D0FB7A202B0FD940F219227449D2
:101F40007448754B98477948734B98477448724B5F
:101F50009847F42387F8973017E1B7F8A8300D2B8E
:101F600013D9B7F8A830FF2B0FD040F222226849CE
:101F70006848694B98476E48674B98476848664B76
:101F80009847F42387F89730FFE0FA7A07F11403B3
:101F90004633F9681846674B9847FB7A07F1980271
:101FA0001344002203F83E2CB7F8A830A7F85830A5
:101FB00097F8AC30002B14BF01230023DBB287F865
:101FC0007B3007F11403C7F88C30D7F88C30BA7A1D
:101FD00083F84120BB7A032B63D17B68C7F8883034
:101FE000D7F88C30C7F88430D7F888301B78013B9D
:101FF000DAB2D7F884301A70D7F884301B78032B04
:1020000013D940F2392242494248434B9847D7F806
:1020100084301B78194648483F4B984740483E4B10
:102020009847F42387F89730AFE0D7F888305B788B
:10203000013BDAB2D7F884305A70D7F884305B7835
:102040000A2B18D0D7F884305B781A2B13D04FF4B2
:1020500010722F492F48304B9847D7F884305B785F
:10206000194636482C4B98472D482B4B9847F4235C
:1020700087F8973089E0D7F88430981CD7F88830F3
:10208000991CD7F888305B781A462A4B9847D7F8BE
:1020900088305B781A46D7F88430134400229A704F
:1020A00063E0BB7A022B27D178681E4B9847034622
:1020B000A7F88230B7F88230002B03D0B7F882300F
:1020C000402B0FD940F24F2211491248124B98472A
:1020D0001B48114B984712480F4B9847F42387F839
:1020E000973052E0D7F88C00B7F8823001331A46A7
:1020F0007968104B984738E0BB7A042B22D1D7F887
:102100008C303E22796818460A4B98472DE000BF74
:1021100078E3400030E04000D5784000ECE140003A
:102120002CE04000250C400000E2400010E240009E
:1021300024E24000A90B400030E240004CE24000A5
:1021400068E24000BB7A012B0FD040F25F221249B7
:102150001248134B98471348114B98471248104B9D
:102160009847F42387F897300FE007F11402002313
:10217000029300230193002300936C232821012064
:102180000A4CA047034687F8973097F997301846CE
:102190009C37BD4690BD00BF78E3400030E0400072
:1021A000D578400084E240002CE04000950E4000CD
:1021B00090B589B004AF786007F10803062279680A
:1021C00018460A4B984707F10802002302930023A0
:1021D000019300230093082302210120044CA0470F
:1021E000034618461437BD4690BD00BFA90B4000FA
:1021F000950E400080B400AF00231846BD465DF840
:10220000047B704780B584B000AF786039600023EC
:10221000FB730E4B98470346FB7397F90F30002B67
:102220000DD1396878680A4B98470346FB7397F9D4
:102230000F30002B03D1074B98470346FB7397F9E8
:102240000F3018461037BD4680BD00BFF50C40006A
:10225000452A4000790D400080B584B000AF786019
:102260000023FB730D4B98470346FB7397F90F3020
:10227000002B0CD178680A4B98470346FB7397F9FB
:102280000F30002B03D1074B98470346FB7397F998
:102290000F3018461037BD4680BD00BFF50C40001A
:1022A0001D2B4000790D400090B593B004AF7860CD
:1022B0000B46FB70FB782F2B01D93023FB70FB788A
:1022C0000133FB70FA7807F10803796818460A4B66
:1022D000984707F10802002302930023019300238B
:1022E0000093302307210120044CA04703461846E1
:1022F0003C37BD4690BD00BFA90B4000950E400085
:1023000090B5ADB004AFF860B9601346FB71F4232B
:1023100087F89F30FB68002B40D0F868224B984725
:102320000346002B3AD107F110034822F9681846FA
:102330001E4B9847B8681E4B98470346002B02D0A7
:10234000BB68002B0CD140F24A421A491A481B4B79
:1023500098471B48194B98471A48184B98471DE057
:1023600007F1100348334022B96818460F4B9847CD
:10237000FB7987F89830144B00221A7007F110028D
:102380000023029300230193002300938C238821D0
:1023900001200E4CA047034687F89F3097F99F30E5
:1023A0001846A437BD4690BDB51A4000A90B4000A1
:1023B000250C40008CE3400030E04000D578400020
:1023C000F0E240002CE0400061094020950E400002
:1023D00080B586B000AF78600023FB757B683B61F9
:1023E00039694FF4A550104B98473B69002B13D027
:1023F0000023FB6007F10C0319464FF4A5500B4B6B
:1024000098470346FB7597F91730002BE8D1FA6817
:102410003B699A4202D0E3E700BF00E000BF00231F
:1024200018461837BD4680BD452C4000252C40007D
:1024300080B584B000AF0023FB730023BB60012094
:102440005A4B98473B1D19460120594B9847034664
:10245000FB7397F90F30002B0BD072225549564869
:10246000564B98475648554B98475648534B9847B4
:1024700095E07B6843F0020319460120524B9847D0
:1024800001204A4B9847514B1B683A461146184663
:10249000474B98470346FB7397F90F30002B06D143
:1024A00097F90F30002B55D13B68002B52D1474B89
:1024B0000E221A6001203D4B9847444B1B683A4658
:1024C000114618463A4B98470346FB7397F90F306D
:1024D000002B06D197F90F30002B3BD13B68002B26
:1024E00038D13A4B13221A600120304B9847374BB2
:1024F0001B683A46114618462D4B98470346FB7316
:1025000097F90F30002B25D096222A492A482B4BC9
:1025100098472F48294B98472A48284B98473EE030
:102520000220224B9847294B1B683A461146184611
:102530001F4B98473B6803F00403002B0AD1AA22E3
:102540001C491D481D4B984722481C4B98471D4865
:102550001A4B98473B6803F00403002B0DD1BB686E
:102560000133BB60B9681C4BA3FB01235A08134617
:102570005B001344CA1A002AD2D03B6803F004035C
:10258000002B06D17B6843F00203194601200E4B55
:1025900098473B6803F00403002B3FF46AAF97F9B8
:1025A0000F3018461037BD4680BD00BFAD04400057
:1025B000252C4000F4E44000ACE34000D578400016
:1025C000C0E34000E0E34000452C40001000402004
:1025D000E4E3400004E44000ABAAAAAA80B582B0BC
:1025E00000AF3B46194641F20840224B984703464C
:1025F000FB7197F90730002B02D06FF0050335E02F
:102600003B6843F480733B603B68194641F20840E5
:10261000194B98470346FB7197F90730002B02D0FE
:102620006FF0050322E03B4619464FF4D050114BA2
:1026300098470346FB7197F90730002B02D06FF0E3
:10264000050313E03B6843F480333B603B68194665
:102650004FF4D050084B98470346FB7197F9073069
:10266000002B02D06FF0050300E000231846083766
:10267000BD4680BD252C4000452C400080B582B071
:1026800000AF314B1B68002B57D12F494FF48050BE
:102690002E4B98470346002B04D02B4B00221A6088
:1026A00000234CE03B1D194641F2F430274B98477C
:1026B0000346002B04D0244B00221A6000233EE086
:1026C000214B1B68224A934206D17B68012B28D0FC
:1026D0001D4B204A1A6024E01B4B1B681E4A934284
:1026E0000DD17B68032B1CD07B68042B03D1164BC8
:1026F0001A4A1A6015E0144B194A1A6011E0124B7D
:102700001B68184A93420CD10F494FF46C100F4BC1
:1027100098470346002B04D00B4B00221A6000237D
:102720000DE0094B1B6823F47023074A1360064B26
:102730001B6843F4A023044A1360034B1B6818462C
:102740000837BD4680BD00BF68094020252C4000E9
:10275000A0021000A1021000B0021000B10210008F
:10276000B2021000F000100080B586B000AF034642
:10277000FB710023FB7200237B6100233B6100237C
:10278000FB6000237B6141F21400354B9847786170
:102790007B69002B03DB0120324B9847F3E700BF36
:1027A00031482F4B984778617B6903F001037B61C7
:1027B0007B69002B16D100237B610FE00120294BA0
:1027C00098474FF00C10264B98477861274A796953
:1027D0002748284B98473B6901333B617B69234A73
:1027E0009342EBD1FB79022B0AD123492348244B96
:1027F00098474FF4801141F28C00214B984711E02B
:10280000FB79032B09D11C491C481D4B984700211B
:1028100041F28C001A4B984704E0FB79042B01D15C
:102820008023FB60174B98470346C3F30B03B3F5B4
:10283000687F06D1FB6843F002031846124B9847A5
:1028400002E0F868104B984710494FF00C100C4B01
:10285000984797F90B3018461837BD4680BD00BF22
:10286000092C4000AD044000BC0702009ED0AD1012
:1028700050E44000D57840007DD51C3CAC070200F8
:10288000452C40007D264000D1234000612F52EFAF
:1028900080B588B000AF0346FB710023FB770023AF
:1028A000BB6100237B614FF0FF333B6141F28C033E
:1028B000FB60194BBB60FB79022B02D0FB79032B29
:1028C00016D1164BFB60164BBB6011E00220154B76
:1028D0009847FB681846144B9847B8617B690133E9
:1028E0007B617A693B699A4202D3FB23FB770CE058
:1028F000BA68BB699A42E9D1BB68074A934204D1DE
:10290000002141F28C00094B984797F91F30184677
:102910002037BD4680BD00BF36265302AC070200FB
:10292000C3C15DD7AD044000092C4000452C4000D8
:1029300080B582B000AF00233B600A23BB713B46E9
:1029400019464FF4A050364B98470346FB7197F950
:102950000730002B0BD040F2312232493248334B42
:1029600098473348314B98473248304B98473B683B
:1029700023F480633B603B6819464FF4A0502E4B14
:1029800098470346FB7197F90730002B0ED040F2B1
:10299000372224492448254B98472848234B9847F9
:1029A0002448224B984797F9073035E03B461946B3
:1029B0004FF4A0501A4B98470346FB7197F9073024
:1029C000002B0ED040F23E2216491748174B98476D
:1029D0001B48164B98471748144B984797F90730F0
:1029E0001AE03B6803F48063002B12D03B6823F4A9
:1029F00080633B603B6819464FF4A0500E4B9847EC
:102A00000346FB71BB79013BBB71BB79002BCDD178
:102A100000E000BF97F9073018460837BD4680BD73
:102A2000252C400004E54000ACE34000D578400090
:102A300060E44000E0E34000452C40007CE44000BE
:102A400098E4400080B588B000AF7860396007F145
:102A5000080300221A605A6007F118031946294832
:102A6000294B98470346FB7797F91F30002B39D144
:102A7000BB6943F4403307F1080108221846234B91
:102A800098470346FB7797F91F30002B2CD1BB6882
:102A9000BB61BA691E4B1340002B05D106220021F1
:102AA00078681C4B984720E0BB691B0CBB61BB6975
:102AB00043F4403307F1100106221846134B9847A0
:102AC0000346FB7707F11003062219467868124B7C
:102AD00098473B68002B02D03B6801221A7097F997
:102AE0001F300AE000BF00E000BF3B68002B02D0AF
:102AF0003B6800221A7097F91F3018462037BD46F0
:102B000080BD00BF08000C00252C40008D2C40002B
:102B10000000FFFFE90B4000A90B400080B588B022
:102B200000AF786007F1080300221A605A6007F1CD
:102B3000180319461D481E4B98470346FB7797F923
:102B40001F30002B28D1BB6943F4403307F1080143
:102B500008221846174B98470346FB7797F91F3012
:102B6000002B1BD1BB68BB61BB699BB2BB61BB695E
:102B700043F4403307F11001062218460D4B9847E5
:102B80000346FB7707F110030622194678680A4BC3
:102B9000984797F91F3004E000BF00E000BF97F9A5
:102BA0001F3018462037BD4680BD00BF08000C000E
:102BB000252C40008D2C4000A90B400080B584B02E
:102BC00000AF78600023FB737868054B9847034695
:102BD000FB7397F90F3018461037BD4680BD00BF14
:102BE000C909400080B582B000AF0023FB71054BDE
:102BF00098470346FB7197F9073018460837BD46DA
:102C000080BD00BF6D0B400080B582B000AF786022
:102C10007868034B9847034618460837BD4680BD81
:102C2000953D400080B582B000AF7860396039686A
:102C30007868034B9847034618460837BD4680BD61
:102C4000B93D400080B582B000AF78603960396826
:102C50007868034B9847034618460837BD4680BD41
:102C6000F13D400080B584B000AFF860B960134614
:102C7000FB80FB881A46B968F868034B98470346FF
:102C800018461037BD4680BD293E400080B586B04D
:102C900000AFF860B9607A60204B1B88083B3B822C
:102CA00000237B610023FB743A8A7B689A420FD32E
:102CB000BA687B6913447A6892B21946F868184B6F
:102CC00098470346DAB2FB7C1344DBB2FB741FE087
:102CD000BA687B6913443A8A1946F868104B9847DA
:102CE0000346DAB2FB7C1344DBB2FB7497F9133072
:102CF000002B0CD13B8A7A68D31A7B603B8A7A69B5
:102D000013447B613B8AFA681344FB60CCE700BF45
:102D100097F9133018461837BD4680BD0C00402087
:102D2000652C400080B584B000AFF860B9601346F0
:102D3000FB80FB881A46B968F868034B984703463E
:102D400018461037BD4680BD693E400080B586B04C
:102D500000AFF860B9607A60204B1B88083B3B826B
:102D600000237B610023FB743A8A7B689A420FD36D
:102D7000BA687B6913447A6892B21946F868184BAE
:102D800098470346DAB2FB7C1344DBB2FB741FE0C6
:102D9000BA687B6913443A8A1946F868104B984719
:102DA0000346DAB2FB7C1344DBB2FB7497F91330B1
:102DB000002B0CD13B8A7A68D31A7B603B8A7A69F4
:102DC00013447B613B8AFA681344FB60CCE700BF85
:102DD00097F9133018461837BD4680BD0C004020C7
:102DE000252D400080B586B000AF78600023FB60E1
:102DF0000023FB7507F10C0319464048404B9847E8
:102E00000346FB75FB683F4A934208D107F10C0368
:102E1000194641F248003A4B98470346FB75FB6858
:102E20001B0C1B12DAB27B68DA71FB681B0C1B11DE
:102E3000DBB203F00F03DAB27B681A72FB681B0C7B
:102E4000DBB203F00F03DAB27B685A72FB681B1225
:102E5000DAB27B681A71FB681B11DBB203F00F0357
:102E6000DAB27B685A71FB68DBB203F00F03DAB2A7
:102E70007B689A71244B984702467B681A607B688E
:102E80001B791B021AB27B685B791B011BB2DBB298
:102E90001BB213431AB27B689B791BB203F00F037A
:102EA0001BB213431BB2BB8241F230337B827B687F
:102EB000DB791B021AB27B681B7A1B011BB2DBB2E7
:102EC0001BB213431AB27B685B7A1BB203F00F0389
:102ED0001BB213431BB23B827A8A3B8A9A4201D2CD
:102EE000F323FB757A8ABB8A9A4201D9F323FB75D7
:102EF00097F9173018461837BD4680BDAC07020059
:102F0000252C4000C3C15DD77D26400080B584B02C
:102F100000AF78600023FB737B68002B0BD07B68CD
:102F20001B78BB73BB7B002B02D0BB7B042B04D96B
:102F30000123BB7301E00123BB730020304B984792
:102F40000346FB7397F90F30002B0CD04FF49272AD
:102F50002C492D482D4B98472D482C4B98472D48F0
:102F60002A4B984745E02C48284B98472B4B9847CD
:102F7000034619462A48254B98472648234B98472D
:102F8000284B9847BB7B1846274B98470346FB7353
:102F900097F90F30002B27D1BB7B1846234B98475E
:102FA0000346FB7397F90F30002B1FD1BB7B022B1D
:102FB0001FD0BB7B032B1CD01D4B98470346FB73D4
:102FC00097F90F30002B0CD04FF4AE720D490E481C
:102FD0000E4B984717480D4B98470E480B4B984798
:102FE00005E097F90F3006E000BF00E000BF124B8C
:102FF000984797F90F3018461037BD4680BD00BF7F
:10300000BD2B4000E0E5400010E54000D5784000D1
:1030100024E5400040E5400044E540007D264000B6
:1030200050E54000493C400069274000912840009D
:10303000DD25400060E54000E52B400080B584B010
:1030400000AF7860234B98470346FB7397F90F3026
:10305000002B0CD04FF4BA721F492048204B9847E0
:1030600020481F4B984720481D4B98472CE00020D4
:103070001E4B98470346FB7397F90F30002B0CD07B
:1030800040F27B1214491548154B98471848144BC9
:1030900098471548124B984716E0164B9847034639
:1030A000FB7397F90F30002B0CD040F281120A49C4
:1030B0000A480B4B98471048094B98470A48084B59
:1030C000984701E00D4B984797F90F301846103795
:1030D000BD4680BD31294000ECE5400010E54000D0
:1030E000D578400080E5400040E540006D4A400052
:1030F000A0E54000E52B4000C4E54000793D4000DC
:1031000080B586B000AF78600B467B800023FB6003
:103110007B683B617B88BB8207F10C031946032067
:10312000034B9847034618461837BD4680BD00BF7D
:10313000F90A400080B586B000AF78600B467B800E
:103140007B68FB6000233B617B88BB8207F10C033B
:1031500019460320034B9847034618461837BD46C7
:1031600080BD00BFF90A400080B483B000AF0346C1
:103170000A46FB711346BB71FB795A00BB79534079
:10318000034AD35C18460C37BD465DF8047B704794
:10319000FCE5400080B584B000AF0346B9607A60BA
:1031A000FB730AE0BB685A1CBA601A78FB7B1146B5
:1031B0001846074B98470346FB737B685A1E7A6094
:1031C000002BEFD1FB7B18461037BD4680BD00BFFA
:1031D0006931400090B589B000AFB9607A603B605A
:1031E0000346FB730523FB770123BB77FB7B3B7512
:1031F000FB7BC13B0E2B00F2CC8001A252F823F0E6
:10320000B9324000B9324000153340005932400015
:103210008332400095324000E3324000E332400008
:10322000593340003D324000933340009333400017
:103230009333400093334000A7324000BB681B0C1F
:10324000DBB27B75BB681B0ADBB2BB75BB68DBB24C
:10325000FB750523FB779FE0BB681B0ADBB27B7520
:1032600097F83030002B04D07B7D63F07F03DBB216
:103270007B75BB68DBB2BB750023FB750523FB7751
:103280008AE000237B750023BB750023FB750523B3
:10329000FB7781E000237B750023BB750023FB7562
:1032A0000523FB7778E0FF237B75FF23BB75FF23A6
:1032B000FB750523FB776FE0BB681B0CDBB27B75EE
:1032C000BB681B0ADBB2BB75BB68DBB2FB753B6836
:1032D0001B0ADBB23B763B68DBB27B760723FB77CE
:1032E0005AE0BB681B0CDBB27B75BB681B0ADBB208
:1032F000BB75BB68DBB2FB753B681B0CDBB23B7676
:103300003B681B0ADBB27B763B68DBB2BB760823EB
:10331000FB7741E0BB681B0ADBB27B7597F8303066
:10332000002B04D07B7D63F07F03DBB27B75BB6831
:10333000DBB2BB757B681B0EDBB2FB757B681B0CBD
:10334000DBB23B767B681B0ADBB27B767B68DBB249
:10335000BB760823FB771FE0BB681B0CDBB27B75D9
:10336000BB681B0ADBB2BB75BB68DBB2FB757B6855
:103370001B0EDBB23B767B681B0CDBB27B767B687B
:103380001B0ADBB2BB767B68DBB2FB760923FB77DB
:1033900002E00023BB7700BF97F91E30002B33D02B
:1033A0001C4B1B78002B13D1FB7F5C1EFB7F013B6A
:1033B0001A4607F1140319467F20174B9847034616
:1033C0005B00DAB207F12003234403F80C2C02E07F
:1033D000FB7F013BFB77FB7F9AB207F11403114699
:1033E00018460E4B98470346002B0DD04FF48472BD
:1033F0000B490C480C4B98470C480B4B98470C4812
:10340000094B98470023BB7797F91E30184624379D
:10341000BD4690BD6C0940209531400035314000DB
:10342000C8EB4000FCE64000D578400010E74000C3
:103430003CE7400080B584B000AF0346FB71012338
:10344000FB73FB79CF2B05D0FB79C52B02D0FB7921
:10345000C62B0BD107F10D03012118462C4B9847C1
:103460000346002B02D00023FB734AE00A23BB7300
:1034700007F10D0301211846254B98470346002B01
:103480000ED040F2271223492348244B9847244862
:10349000224B98472348214B98470023FB7330E089
:1034A0007B7BFA799A4207D097F90E30DAB2013A6B
:1034B000D2B2BA73002BDBDC0A23BB7307F10D0316
:1034C00001211846124B98470346002B0ED040F2BC
:1034D000351210491048114B984711480F4B984727
:1034E00010480E4B98470023FB730AE07B7B002BB0
:1034F00007D097F90E30DAB2013AD2B2BA73002B84
:10350000DCDC97F90F3018461037BD4680BD00BF90
:1035100001314000D0EB4000FCE64000D57840008F
:1035200040E740003CE7400080B586B000AF7860DF
:103530000B467B8013467B7001237B740023BB8288
:103540007B88B3F5005F02D87B887B8202E04FF472
:1035500000537B820A23FB8207F10B0301211846EB
:10356000464B98470346002B0ED040F25712444971
:103570004448454B98474548434B98474448424B3D
:10358000984700237B7410E0FB7A1B09DBB203F041
:103590000F030F2B08D0B7F916309AB2013A92B246
:1035A000FA82002BD8D100E000BF97F91130002B30
:1035B0005CD0B7F91630002B10DC40F263123049B2
:1035C0003048314B9847FB7A194632482E4B984782
:1035D0002F482D4B984700237B7448E0B7F91430EF
:1035E0007A6813447A8A11461846244B9847034652
:1035F000002B0ED04FF4B67221492248224B984737
:103600002548214B984722481F4B984700237B743D
:103610002DE07B78002B1BD1204B1B78002B17D182
:1036200007F10C0302211846144B98470346002B60
:103630000ED040F2771212491248134B984718489F
:10364000114B98471248104B984700237B740EE0AB
:10365000BA8A7B8A13449BB2BB827B8A7A88D31A4C
:103660007B807B88002B7FF46BAF00E000BF97F975
:10367000113018461837BD4680BD00BF01314000EB
:10368000DCEB4000FCE64000D578400074E74000E9
:103690003CE74000A8E74000D8E740006C09402024
:1036A0000CE8400080B586B000AF78600B467B80A8
:1036B0000123FB740023BB810023FB827B88B3F5CD
:1036C000005F02D87B88BB8202E04FF40053BB82CC
:1036D000F0237B74B7F91630002B09D17B88B3F542
:1036E000005F02D80323BB740BE00123BB7408E026
:1036F0007B88B3F5005F02D80323BB7401E002238B
:10370000BB747A7CBB7C1343DBB27B7407F111037F
:10371000012118462E4B98470346002B0ED04FF43C
:10372000D4722C492C482D4B98472D482B4B984749
:103730002C482A4B98470023FB7443E0B7F9163016
:103740007A681344BA8A11461846214B98470346B3
:10375000002B0ED040F2B1121E491F481F4B984754
:1037600021481E4B98471F481C4B98470023FB7469
:1037700028E01E4B1B78002B17D107F10C03022108
:103780001846134B98470346002B0ED040F2BB124D
:1037900010491148114B98471548104B984711484C
:1037A0000E4B98470023FB740CE0FA8ABB8A134443
:1037B0009BB2FB827A88BB8AD31A7B807B88002BE2
:1037C0007FF47CAF97F9133018461837BD4680BD9B
:1037D00035314000ECEB4000FCE64000D57840007D
:1037E00044E840003CE740007CE840006C09402091
:1037F000B0E8400090B587B002AF7860396001232F
:103800007B73C923FB730023BB737B68302B04D805
:10381000C323FB730123BB7303E0C923FB730023A2
:10382000BB73F87BBB7B009304233A6879681E4C1A
:10383000A04703467B7397F90D30012B0ED040F261
:10384000EB121A491A481B4B984779681A48194BCA
:1038500098471A48174B9847002321E0FB7B1846EE
:10386000174B984703467B7397F90D30012B16D001
:1038700040F2F1120D490E480E4B984779681148F5
:103880000C4B98470D480B4B98470023009300239F
:1038900000220021CF20044CA047002300E0012398
:1038A00018461437BD4690BDD5314000FCEB4000B2
:1038B000FCE64000D5784000E8E840003CE74000E6
:1038C0003534400014E9400090B589B002AFF8608B
:1038D000B9601346FB80C723FB75FA88F87D002387
:1038E000009313460022F9682D4CA0470346BB7590
:1038F00097F91630012B0ED040F20F2229492A48A1
:103900002A4B9847F9682A48284B98472948274B5B
:103910009847002340E0FB7D1846274B9847034615
:10392000BB7597F91630012B16D040F215221D49B0
:103930001D481E4B9847F96820481C4B98471D4866
:103940001A4B984700230093002300220021CF2028
:10395000134CA04700231FE0FB881946B868184B9A
:1039600098470346BB7597F91630012B13D040F2E8
:1039700026220C490C480D4B984712480B4B984790
:103980000C480A4B98470023009300230022002193
:10399000CF20034CA047012318461C37BD4690BDDD
:1039A000D53140000CEC4000FCE64000D5784000EA
:1039B0004CE940003CE74000353440007CE94000E1
:1039C000A5364000B4E9400090B587B002AF7860FA
:1039D000396001237B73CA23FB730023BB737B68AD
:1039E000FF2B04D8C423FB730123BB7303E0CA235A
:1039F000FB730023BB73F87BBB7B00930423002283
:103A00007968364CA04703467B7397F90D30012B3C
:103A10000ED040F2452232493248334B98477968FC
:103A20003248314B984732482F4B9847002351E09A
:103A3000FB7B18462F4B984703467B7397F90D3055
:103A4000012B16D040F24B2225492648264B984799
:103A500079682948244B98472548234B98470023E9
:103A60000093002300220021CF201C4CA0470023FC
:103A700030E0BA7B07F10803042118461F4B984732
:103A800003467B7397F90D30012B15D040F253227A
:103A900013491448144B98471948134B9847144836
:103AA000114B984700230093002300220021CF20D0
:103AB0000A4CA04700230DE03B7A1A467B7A1B0292
:103AC0001A43BB7A1B041A43FB7A1B061A433B6852
:103AD0001A60012318461437BD4690BDD531400009
:103AE0001CEC4000FCE64000D5784000DCE94000DA
:103AF0003CE740003534400008EA400029354000EA
:103B00003CEA400090B589B002AFF860B960134656
:103B1000FB80C823FB75FA88F87D002300931346C9
:103B20000022F9682F4CA0470346BB7597F9163061
:103B3000012B0ED04FF41D722B492C482C4B98476B
:103B4000F9682C482A4B98472B48294B9847002363
:103B500043E0FB7D1846294B98470346BB7597F910
:103B60001630012B16D040F27A221F491F48204BF5
:103B70009847F96822481E4B98471F481C4B9847A6
:103B800000230093002300220021CF20154CA047E2
:103B9000002322E0FB8800221946B868194B984799
:103BA0000346BB7597F91630012B15D04FF42172DF
:103BB0000D490E480E4B984713480D4B98470E4839
:103BC0000B4B984700230093002300220021CF20B5
:103BD000044CA047002300E0012318461C37BD46D3
:103BE00090BD00BFD53140002CEC4000FCE6400009
:103BF000D57840005CEA40003CE7400035344000A6
:103C00008CEA400029354000C4EA400080B582B00B
:103C100000AF4EF624000A4B984778607B6823F08B
:103C200070037B607B6843F050037B6000BF796862
:103C30004EF62400034B984700BF0837BD4680BDB1
:103C4000953D4000F13D400080B582B000AF0023BB
:103C50003B603D4B00221A703B4619464EF624004D
:103C60003A4B98470346002B25D1374B01221A7057
:103C700040F2C52236493748374B98473748364BCC
:103C800098473748344B98473B4619464EF6240030
:103C90002E4B98470346002B0DD14FF432722C491E
:103CA0002C482D4B98472F482B4B98472C482A4B94
:103CB0009847002344E0244B1B78002B25D13B6818
:103CC00023F00C033B603B6823F070033B603B68D0
:103CD00043F050033B603B6819464EF62400224BEC
:103CE00098470346002B0DD140F2D22218491948BB
:103CF000194B98471D48184B98471948164B984739
:103D000000231DE0104B01221A703B1D19464FF491
:103D100080500E4B98470346002B0ED14FF437725C
:103D20000B490C480C4B984711480B4B98470C48D3
:103D3000094B98476FF0050302E00E4B98470023AC
:103D400018460837BD4680BD6C094020C93940007F
:103D500038EC4000FCE64000D5784000ECEA40003A
:103D60003CE740003CEB4000F53740006CEB400086
:103D7000A0EB40000D3C400080B400AF044B00229B
:103D80001A7000231846BD465DF8047B704700BFDB
:103D90006C09402080B584B000AF786007F10C0357
:103DA00019467868034B9847FB6818461037BD469C
:103DB00080BD00BFC939400080B584B000AF7860D5
:103DC000396039687868094B98470346FB7397F95F
:103DD0000F30012B02D10023FB7301E0FA23FB73A8
:103DE00097F90F3018461037BD4680BDC9394000DD
:103DF00080B584B000AF7860396039687868094B65
:103E000098470346FB7397F90F30012B02D100232B
:103E1000FB7301E0FA23FB7397F90F301846103754
:103E2000BD4680BDF537400080B586B000AFF86074
:103E3000B9601346FB80FB881A46B968F868094BDD
:103E400098470346FB7597F91730012B02D10023E1
:103E5000FB7501E0FA23FB7597F917301846183700
:103E6000BD4680BD053B400080B586B000AFF86020
:103E7000B9601346FB80FB881A46B968F868094B9D
:103E800098470346FB7597F91730012B02D10023A1
:103E9000FB7501E0FA23FB7597F9173018461837C0
:103EA000BD4680BDC938400090B589B000AFB9604B
:103EB0007B600346FB731346BB733B8E002B00F005
:103EC000848097F90F30434A1B0113441B68002B71
:103ED0007BD097F90F303F4A1B01134404331B88F2
:103EE0009BB2002B71D097F90F303A4A1B01134453
:103EF0000A331B78DBB2012B67D17B68FB61BB689F
:103F00003A8EDA8001237B763B8E7B8397F90F30E4
:103F1000304A1B01134404331B889BB27A8BD31A9B
:103F20009BB2FB82B7F91630002B09DD00237B76AC
:103F300097F90F30274A1B01134404331B887B83F6
:103F400097F90F30234A1B01134419687B7E7A8B43
:103F5000F869214CA0470346002B26D197F90F3072
:103F60001C4A1B0113441A68BB681A60B7F91A206F
:103F7000BB689A80BB68DA887B8BD31A9AB2BB681D
:103F8000DA80164B1B68002B06D0144B1B68B97BDC
:103F900097F90F00BA6898473A8E7B8BD31A3B8605
:103FA0007B8BFA691344FB610CE00D480D4B98477D
:103FB0003B8E19460C480B4B98470C48094B9847C9
:103FC00000BF02E03B8E002B9CD100BF2437BD46D2
:103FD00090BD00BFAC0F4020D91440005C104020C1
:103FE00044EC4000D578400050EC400064EC4000C8
:103FF00090B5BBB002AF03463A60FB710B46BB8085
:10400000FB79412B1CD107F1CC0100230422386835
:10401000BD4CA0470346002B40F0E98197F9CD3015
:1040200087F8C830B94B1B68002B00F0E081B74B14
:104030001B6897F9CC0007F1C80201219847D6E127
:10404000FB79422B1CD107F1C401002304223868FC
:10405000AD4CA0470346002B40F0C98197F9C5300D
:1040600087F8C030A94B1B68002B00F0C081A74B1C
:104070001B6897F9C40007F1C00202219847B6E116
:10408000FB79432B5AD107F1B40100230C22386885
:104090009D4CA0470346002B40F0A98197F9BD3005
:1040A000002B2EDB97F9BD30994A1B0113440B33CB
:1040B00000221A7097F9BD30954A1B0113440A3348
:1040C00001221A70934B1B889BB201339AB2914B19
:1040D0001A80904B1B889BB2002B06D18D4B1B88FE
:1040E0009BB201339AB28B4B1A8097F9BD301846B8
:1040F000884B1B8899B2864A0301134406330A464B
:104100001A8097F9BD3087F8A0300223A7F8A430B1
:10411000B7F8B630A7F8A630D7F8B830C7F8A83047
:104120007A4B1B68002B00F06281784B1B6897F973
:10413000BC0007F1A0020421984758E1FB79442B09
:1041400002D0FB794B2B31D107F19C0100230422D3
:1041500038686D4CA0470346002B40F0438197F927
:104160009C3087F8983097F99D3087F8993097F907
:104170009D30002B0CD197F99C301846B7F89E3033
:10418000083B99B2624A0301134408330A461A8075
:104190005E4B1B68002B00F025815C4B1B6897F978
:1041A0009C0007F19802052198471BE1FB794A2BF7
:1041B00019D107F10C01002344223868524CA04762
:1041C0000346002B40F01381FB6CFB64524B1B68D1
:1041D000002B00F00C81504B1B68F96C07F10C02AE
:1041E0001046984703E1FB79462B06D0FB79482B14
:1041F00003D0FB794D2B40F09380062387F8DF3006
:10420000FB79482B02D1092387F8DF301023A7F868
:10421000D830B7F8D82007F18801002338683A4C25
:10422000A0470346002B40F0DF800023A7F8D630DC
:1042300097F8943087F8D530B7F89630A7F8D6308D
:1042400097F9D530324A1B0113440C3300221A70FF
:10425000B7F89030A7F8D230B7F89230A7F8D0303E
:10426000B7F88A30A7F87A30D7F88C30FB6797F91F
:10427000D530274A1B01134406331B889BB2B7F87D
:10428000D6209A4233D1B7F9D230002B1ADDB7F9D4
:10429000D220BB889A4215DAB7F8D0303A68134476
:1042A0003B60B7F8D230A7F8D83097F8DF2007F195
:1042B000700197F9D500B7F8D83000933B68174CD8
:1042C000A04791E0B7F8D230A7F8743000233B67DD
:1042D0000E4B1B68002B00F087800C4B1B6807F10E
:1042E000700297F8DF1097F9D50098477CE0B7F88F
:1042F000D820BB889A4277D20123002200210020D7
:10430000014CA04770E000BFD91440005C10402071
:10431000AC0F40206E09402064104020A93E4000B0
:10432000FB79452B05D0FB79472B02D0FB794C2B31
:104330003BD1072387F8DE30FB79472B02D10823D6
:1043400087F8DE3007F164010023082238682A4C20
:10435000A0470346002B49D10023A7F8DC3097F88B
:10436000643087F8DB30B7F86830A7F8DC30B7F98D
:104370006630A7F86E3097F9DB30204A1B011344F2
:1043800006331B889BB2B7F8DC209A422ED11C4B17
:104390001B68002B2AD01A4B1B6807F16E0297F896
:1043A000DE1097F9DB00984720E0FB79522B1ED1F5
:1043B00007F150010123142238680F4CA04703462F
:1043C000002B14D17B6D1A460E4B1A600D4B1B68E7
:1043D000002B0CD00B4B1B68386DB96D97F8602023
:1043E000984704E000BF02E000BF00E000BF00BF4C
:1043F000E437BD4690BD00BFD9144000AC0F40204B
:104400005C1040206010402080B500AF0A4B1B7844
:10441000DBB2002B0ED1B02200210848084B984790
:1044200008490220084B9847034B01221A70074B9A
:1044300000221A8000BF80BD70094020AC0F4020D0
:10444000E90B4000F13F40005D1640006E0940203E
:1044500080B483B000AF78603960064A7B6813602F
:10446000054A3B68136000BF0C37BD465DF8047B0E
:10447000704700BF5C1040206410402090B58BB0A6
:1044800004AF0346FB800B467B7113463B71FF2351
:10449000FB750B237B75FB88022B5FD17B79012B8E
:1044A00004D107237B750023BB7551E07B79022B78
:1044B00004D10B237B750723BB7549E097F91730AF
:1044C0004EE0BB7D1B01284A13443B613B699B7A4C
:1044D000DBB2002B39D1102200213869234B9847D9
:1044E0003B6901229A72224B1B889BB201339AB21C
:1044F0001F4B1A801E4B1B889BB2002B06D11C4BF6
:104500001B889BB201339AB2194B1A80184B1B8837
:104510009AB23B69DA80BB7DFB753B7903F00103FE
:10452000002B1AD0FB7D3B733B692122DA7207F125
:104530000C02002302930023019300230093042321
:10454000502102200B4CA04707E0BB7D0133BB7517
:10455000BA7D7B7D9A42B4D300E000BF97F9173053
:1045600018461C37BD4690BDAC0F4020E90B4000FB
:104570006E094020950E400090B58BB004AF034605
:104580003960FB711346BB71FA23FB7597F907304D
:10459000002B4FDB3B68002B4CD097F90730284AA3
:1045A0001B0113440A331B78DBB2012B42D1BB79C8
:1045B000002B3FD04423BB7597F90730204A1B01DD
:1045C00013440B331B78DBB203F00103002B0AD03A
:1045D0004B23BB7597F90730194A1B0113440B3362
:1045E0001B78DBB27B74FB793B7407F1080308226C
:1045F00039681846134B984797F90730104A1B0142
:10460000134406331B889BB27B8207F10802B97DF5
:104610000023029300230193002300930C23022024
:10462000094CA0470346FB7597F91730002B01D0C2
:10463000F723FB7597F9173018461C37BD4690BD18
:10464000AC0F4020A90B4000950E400090B58FB0F4
:1046500004AFB96011461A460346FB730B46BB8193
:104660001346FB804FF6FA73FB8497F90F30002B4B
:1046700059DBBB68002B56D0BB89B3F5AF6F52D85E
:1046800097F90F302B4A1B0113440A331B78DBB216
:10469000012B48D1452387F823305023BB84FB7B73
:1046A0003B74BB897B8297F90F30224A1B0113446C
:1046B00006331B889BB2BB8397F90F30062B01DDB5
:1046C0004423BB8497F90F301A4A1B0113440B3360
:1046D0001B78DBB203F00103002B0AD04C2387F8D0
:1046E000233097F90F30134A1B01134408331B88FA
:1046F000BB8497F8233063F07F03D9B207F110022F
:10470000BB8C0293BB890193BB68009310230220EA
:10471000094CA0470346FB84B7F92630002B02D092
:104720004FF6F273FB84B7F9263018462C37BD4696
:1047300090BD00BFAC0F4020950E400090B58DB0ED
:1047400004AFB9607B600346FB731346BB814FF631
:10475000FA73FB8397F90F30002B6CDBBB68002BDF
:1047600069D0BB89002B66D097F90F30354A1B0101
:1047700013440A331B78DBB2012B5CD10023FB838B
:1047800097F90F302F4A1B011344BA681A6097F942
:104790000F302C4A1B0113440433BA891A8097F94D
:1047A0000F30284A1B0113440C331B78DBB2002B5B
:1047B00041D146237B7797F90F30224A1B011344DE
:1047C0000C3301221A7097F90F301E4A1B01134453
:1047D0000B331B78DBB203F00103002B01D04D2318
:1047E0007B777B68002B03D14FF0FF337B6101E0C7
:1047F0007B687B61FB7B3B7697F90F30114A1B018D
:10480000134406331B889BB27B8307F11402797F24
:104810000023029300230193002300930823022026
:10482000094CA0470346FB83B7F91E30002B02D08A
:104830004FF6F273FB83B7F91E3018462437BD4696
:1048400090BD00BFAC0F4020950E400090B589B0E0
:1048500004AF0346FB71FA23FB7397F90730002B73
:1048600053DB97F907302C4A1B0113440A331B789A
:10487000DBB2012B49D14923BB73FB793B7297F91A
:104880000730254A1B01134406331B889BB27B81EA
:1048900097F90730204A1B0113440A3300221A708B
:1048A00097F907301C4A1B011344063300221A8073
:1048B00097F90730184A1B0113440B331B78DBB2FE
:1048C00003F00103002B01D04E23BB7307F1080254
:1048D000B97B002302930023019300230093042358
:1048E00002200E4CA0470346FB7397F90F30002BB4
:1048F00001D0F723FB7397F907301B01064A1344D5
:10490000102200211846064B984797F90F30184699
:104910001437BD4690BD00BFAC0F4020950E40003F
:10492000E90B400090B589B004AF7860FA23FB73BF
:104930007868124B98470346BB73BB7B402B17D854
:10494000BB7B9BB201339AB20023029300230193F5
:104950000023009313467A68CA210220084CA0471E
:104960000346FB7397F90F30002B01D0F723FB733D
:1049700097F90F3018461437BD4690BD250C4000FE
:10498000950E400080B582B000AF3B467B607B68EF
:10499000B9221A7000211048104B98477B681B7889
:1049A00019460F480D4B984701210E480B4B98476D
:1049B00000210D48094B984781210C48074B984727
:1049C00000BF0B480B4B98470346012BF9D100BFA2
:1049D0000837BD4680BD00BF08020100452C4000DD
:1049E0000C020100140201001C020100040201007B
:1049F00018020100092C400080B582B000AF3B4690
:104A00007B607B68AB221A7000211048104B9847DE
:104A10007B681B7819460F480D4B984701210E48BB
:104A20000B4B984700210D48094B984781210C48B2
:104A3000074B984700BF0B480B4B98470346012B89
:104A4000F9D100BF0837BD4680BD00BF0802010094
:104A5000452C40000C020100140201001C02010060
:104A60000402010018020100092C400080B584B046
:104A700000AF0346FB710023FB73204B98470346AE
:104A8000C3F30B03B3F5687F32D307F1080319466C
:104A900041F210401A4B98470346FB7397F90F30C9
:104AA000002B24D1BA68174B1340BB60BA68164B71
:104AB0001343BB60BB68194641F21040134B984743
:104AC000FB79002B02D0124B984701E0114B98471D
:104AD000BA680C4B1340BB60BB6843F48033BB60C7
:104AE000BB68194641F21040084B984700E000BFF0
:104AF00097F90F3018461037BD4680BD7D2640001F
:104B0000252C4000FF8F88F800101101452C400033
:104B1000F94940008549400080B582B000AF786017
:104B20007B68072B31D801A252F823F0894B400053
:104B30004D4B4000554B40005D4B4000654B4000E5
:104B40006D4B4000754B40007F4B40000020114BE7
:104B500098471AE001200F4B984716E000200E4BB3
:104B6000984712E010200C4B98470EE020200A4B8B
:104B700098470AE03E210020084B984705E03E2177
:104B80000120064B984700E000BF00BF0837BD4634
:104B900080BD00BFAD5D4000195E4000895E4000F1
:104BA00080B582B000AF78607B68072B26D801A261
:104BB00052F823F0D54B4000D94B4000D94B400070
:104BC000EB4B4000EB4B4000EB4B4000EB4B40000D
:104BD000EB4B4000012312E00B4B98470346002BA0
:104BE00014BF01230023DBB209E0084B98470346BA
:104BF000002B14BF01230023DBB200E00023184682
:104C00000837BD4680BD00BFE55D4000015F400044
:104C100080B483B000AF78607B68072B25D801A2F1
:104C200052F823F0454C40004B4C4000514C4000A2
:104C3000574C40005B4C40005F4C4000634C4000D0
:104C4000674C40004FF4FA4310E04FF400430DE08E
:104C50004FF400430AE0084B08E0084B06E0084B1D
:104C600004E0074B02E0064B00E0002318460C3737
:104C7000BD465DF8047B704700093D0000127A00D4
:104C8000001BB70080B582B000AF0346FB7100BFC8
:104C9000FB791846054B9847034683F00103DBB2C6
:104CA000002BF5D100BF0837BD4680BDA14B4000A9
:104CB00080B586B000AFF8607A603B600B46FB724F
:104CC0007B68002B07D13B68002B04D1FB684FF4B5
:104CD00070021A6019E0FB7A18460E4B984702469C
:104CE0007B68B2FBF3F37B617B693A6802FB03F3F9
:104CF0007B613B68013B1A04074B13407A68D2B2D0
:104D0000134343F47C52FB681A6000BF1837BD465A
:104D100080BD00BF114C40000000FF0780B582B08D
:104D200000AF786039603B68002B08D1094B984789
:104D3000094A7B681B6843F00053936205E0064A0A
:104D40007B681B6843F48033D36100BF0837BD46DE
:104D500080BD00BF1D5F400000060E4080B582B0E0
:104D600000AF78607B68002B03D1054B9847034662
:104D700002E0044B9847034618460837BD4680BDFD
:104D8000395F4000555F400080B582B000AF0346F8
:104D9000FB71FB79033B042B08D8FB791846064BC3
:104DA0009847FB791846054B984700E000BF00BFC5
:104DB0000837BD4680BD00BF194B4000854C400000
:104DC00080B582B000AF786000BF7868044B984728
:104DD0000346002BF9D0002318460837BD4680BD96
:104DE0005D4D400080B500AF0620054B9847024658
:104DF00013469B0013449A001344184680BD00BF1D
:104E0000114C400080B500AF024B9847034618464E
:104E100080BD00BFE54D400090B583B000AF1348A2
:104E2000134B98470620134B9847381D192301222E
:104E30000621114CA0473B1D002118460F4B9847F7
:104E400000200F4B984702200E4B984700200E4B36
:104E500098470E4B98470E4B984703461846044B0D
:104E6000984700BF0C37BD4690BD00BF00A3E111BD
:104E70007D694000894D4000B14C40001D4D40000F
:104E8000C14D4000AD5C4000295D4000116840000C
:104E9000054E400080B586B000AFF860B9607A601A
:104EA00000237B61FB68002B12D04FF0FF3313E02F
:104EB0000B4B1B680B4A1268B96810469847BB68D1
:104EC0000133BB607B6901337B617B68013B7B60A5
:104ED0007B68002BECDC7B6918461837BD4680BD2B
:104EE000681040207010402080B586B000AFF86098
:104EF000B9607A6000237B61FB68012B1ED0FB68E0
:104F0000022B1BD0FB68032B18D04FF0FF3319E0A6
:104F10000E4B1A680E4B1868BB68591CB9601B7899
:104F2000194690470346002B02DA4FF0FF3309E0A1
:104F30007B6901337B617B68013B7B607B68002B75
:104F4000E6D17B6918461837BD4680BD6C104020FD
:104F50007010402080B400AFBFF34F8FBFF36F8F4E
:104F6000094B0022C3F85022074A074B5B6943F400
:104F700000335361BFF34F8FBFF36F8F00BFBD4648
:104F80005DF8047B704700BF00ED00E080B48BB09B
:104F900000AF264BD3F88030FB61FB695B0BC3F39A
:104FA0000E037B62FB6903F007030433BB61FB69FB
:104FB000DB08C3F309037B617B69FB60FB68B3FA21
:104FC00083F37B607B68DBB203F01F033B61BFF3BD
:104FD0004F8F7B693B623A6A3B6902FA03F31946D9
:104FE0007A6ABB6902FA03F30B43BB600F4ABB68E2
:104FF000C2F860323B6A5A1E3A62002BEBD17B6AE0
:105000005A1E7A62002BE4D1BFF34F8F074A074B39
:105010005B6943F480335361BFF34F8FBFF36F8FEE
:1050200000BF2C37BD465DF8047B704700ED00E003
:1050300080B582B000AF78607868034B984700BFB6
:105040000837BD4680BD00BF715F400080B500AF2E
:105050000A20084B98470B20064B98470C20054B1D
:1050600098471020034B98471120024B984700BFE8
:1050700080BD00BF3150400080B489B000AF78607F
:105080007B68FB61FB69BB61BB695A09FB697B619A
:105090007B6903F01F03012101FA03F33A61FB600E
:1050A0003B69BB60BA68064B13445B021A46FB6857
:1050B000536000BF2437BD465DF8047B704700BFD6
:1050C0000707200080B48DB000AF786039607B683E
:1050D000FB623B68BB62FB6A7B627B6A5A09FB6AC4
:1050E0003B623B6A03F01F03012101FA03F3FA61FB
:1050F000BB61BB6A7B61FB693B613A69374B134417
:105100005B02FB607B6903F00803002B03D0FB68A4
:10511000BA695A6602E0FB68BA691A667B6903F0ED
:105120001003002B04D0FB68BA69C3F8942003E095
:10513000FB68BA69C3F890207B6903F02003002B59
:1051400003D0FB68BA691A6502E0FB68BA695A6560
:105150007B6903F0C003002B03D0FB68BA691A62B5
:1051600002E0FB68BA695A627B6903F08003002B96
:1051700004D0FB68BA69C3F8842003E0FB68BA690D
:10518000C3F880207B6903F00103002B06D0FB6885
:105190001A6FBB691A43FB681A6706E0FB681A6F4F
:1051A000BB69DB431A40FB681A677B6903F00203A3
:1051B000002B06D0FB685A6FBB691A43FB685A671D
:1051C00006E0FB685A6FBB69DB431A40FB685A670D
:1051D00000BF3437BD465DF8047B704707072000E9
:1051E00080B48DB000AF78600B46FB707B68FB62CB
:1051F000FB7887F82B30FB6A7B627B6A3B623B6AF9
:105200005B09FB61FA69174B13445B02BB6197F8BA
:105210002B30012B09D1FB6A7B617B6903F01F03F3
:1052200001229A40BB691A610CE097F82B30002BE1
:1052300008D1FB6A3B613B6903F01F0301229A40DE
:10524000BB695A61FB6AFB60FB6803F01F03012224
:105250009A40BB69C3F8A02000BF3437BD465DF853
:10526000047B70470707200080B48BB000AF7860E4
:105270000B46FB707B687B62FB7887F823307B6A88
:10528000FB61FB69BB61BB695B097B617A69104BA0
:1052900013445B023B6197F82330002B09D07B6AF3
:1052A000FB60FB6803F01F0301229A403B691A630D
:1052B00008E07B6ABB60BB6803F01F0301229A40D1
:1052C0003B695A6300BF2C37BD465DF8047B7047CD
:1052D0000707200080B48DB000AF78600B46FB70EC
:1052E0007B68FB62FB7887F82B30FB6A7B627B6A0A
:1052F0005A09FB6A3B623B6A03F01F03012101FA72
:1053000003F3FA61BB6197F82B30FB75FB693B61D6
:105310003A69234B13445B02FB60FB7D013B032B8B
:105320002ED801A252F823F05D5340006F53400085
:10533000395340004B534000FB68BA69C3F8C4209E
:10534000FB68BA69C3F8D0201FE0FB68BA69C3F8EC
:10535000C420FB68BA69C3F8D42016E0FB68BA69B8
:10536000C3F8C020FB68BA69C3F8D0200DE0FB6821
:10537000BA69C3F8C020FB68BA69C3F8D42004E056
:10538000FB68BA69C3F8B42003E0FB68BA69C3F8E4
:10539000B02000BF3437BD465DF8047B704700BFC6
:1053A0000707200080B400AFBFF34F8FBFF36F8FAC
:1053B0000C4A0C4BD3F8903223F00103C2F8903220
:1053C000084A084BD3F8943223F00103C2F8943210
:1053D000BFF34F8FBFF36F8F00BFBD465DF8047BF7
:1053E000704700BF00ED00E080B500AF1E4B4FF4EA
:1053F00000425A601D4B98471D4B98471D4B1E4A53
:105400005A601C4B1D4A5A601D4B98471D4B9847CC
:10541000012148201C4B9847012148201B4B9847ED
:1054200000210B20184B984788210B20184B9847D8
:1054300002210B20174B984700211520144B984749
:105440001520154B9847154A144BD3F8143143F0E7
:105450001003C2F81431032124200D4B9847242057
:105460000D4B984700BF80BD50180E40554F40006F
:105470008D4F4000000C0E400C08005A0C07005ADB
:10548000A55340004D504000E1514000695240009A
:10549000C5504000D552400079504000008008407F
:1054A00080B485B000AFF860B9607A607B68002B8B
:1054B00003D0FB68BA685A6602E0FB68BA681A66ED
:1054C00000BF1437BD465DF8047B704780B487B0D9
:1054D00000AFF860B9607A60FB687A685A64BB68AC
:1054E000B3F1C05F4AD0B3F1C05F08D8B3F1006F29
:1054F00016D0B3F1805F2CD0002B69D064E0B3F1FB
:10550000205F65D0B3F1205F03D8B3F1005F4AD0CC
:105510005AE0B3F1405F5BD0B3F1605F58D053E025
:10552000FB681B6F7B61FB681A6F7B68D9437B69E3
:105530000B401A40FB681A67FB685B6F7B61FB6876
:105540005A6F7B68D9437B690B401A40FB685A67E6
:105550003AE0FB681B6F7B617A687B691A43FB68E2
:105560001A67FB685B6F7B61FB685A6F7B68D94386
:105570007B690B401A40FB685A6725E0FB681B6F8C
:105580007B61FB681A6F7B68D9437B690B401A40CB
:10559000FB681A67FB685B6F7B617A687B691A43FB
:1055A000FB685A6710E0FB681B6F7B617A687B6958
:1055B0001A43FB681A67FB685B6F7B617A687B69DB
:1055C0001A43FB685A6700BFFB687A685A6000E0BC
:1055D00000BF1C37BD465DF8047B704780B584B0C2
:1055E00000AFF860B9607A60B968F868194B9847FD
:1055F0007B6803F001031A46B968F868164B9847B0
:105600007B6803F00A03002B03D0FB68BA681A62B8
:1056100002E0FB68BA685A627B6803F00203002B61
:1056200004D0FB68BA68C3F8802008E07B6803F008
:105630000803002B03D0FB68BA68C3F88420FB681A
:10564000BA685A61FB68BA681A6000BF1037BD4675
:1056500080BD00BF49574000A154400080B584B0D0
:1056600000AFF860B9607A603B60B968F868124BC7
:105670009847BA69B968F868104B98473B68002B9F
:1056800003D0FB68BA681A6502E0FB68BA685A651D
:105690007B68002B03D0FB68BA681A6302E0FB68E2
:1056A000BA685A63FB68BA681A61FB68BA681A601C
:1056B00000BF1037BD4680BD49574000A15440008F
:1056C00080B485B000AFF860B9607A607B6803F0A1
:1056D0001003002B20D0FB68BA68C3F8B0207B68A9
:1056E00003F02003002B04D0FB68BA68C3F8D42071
:1056F00003E0FB68BA68C3F8D0207B6803F040037E
:10570000002B04D0FB68BA68C3F8C02008E0FB682F
:10571000BA68C3F8C42003E0FB68BA68C3F8B420D1
:1057200000BF1437BD465DF8047B704780B483B07A
:1057300000AF786039607B683A681A6400BF0C3744
:10574000BD465DF8047B704780B483B000AF7860DD
:1057500039607B683A685A6400BF0C37BD465DF813
:10576000047B704780B483B000AF78607B68DB6CEB
:1057700018460C37BD465DF8047B704780B483B093
:1057800000AF78607B689B6C18460C37BD465DF8AF
:10579000047B704790B587B002AF78603960786855
:1057A000634B9847F8603B6803F0F043B3F1005F48
:1057B00067D0B3F1005F09D8B3F1805F2BD0B3F1AC
:1057C000C05F43D0B3F1006F0AD0A9E0B3F1405FEE
:1057D0007ED0B3F1605F7BD0B3F1205F6CD09FE0EF
:1057E0007B6803F01F03012202FA03F31A464FF00D
:1057F0000061F8684F4B98477B6803F01F03012254
:1058000002FA03F319463B6803F001031A46F868ED
:10581000494B984786E07B6803F01F03012202FA98
:1058200003F31A464FF08051F868424B98477B6863
:1058300003F01F03012202FA03F319463B6803F049
:1058400001031A46F8683C4B98476BE07B6803F00D
:105850001F03012202FA03F31A464FF0C051F86801
:10586000344B98477B6803F01F03012202FA03F3CD
:1058700019463B6803F001031A46F8682E4B984717
:1058800050E07B6803F01F03012202FA03F31A467B
:105890004FF00051F868274B98477B6803F01F03CF
:1058A000012202FA03F319463B6803F001031A468A
:1058B000F868214B984735E07B6803F01F0301220D
:1058C00002FA03F33A681946F8681C4B984729E036
:1058D0007B6803F01F03012202FA03F319463B68B9
:1058E00003F06053B3F1605F0CBF01230023DBB210
:1058F0001A463B6803F00403002B14BF0123002366
:10590000DBB218463B6803F00103002B14BF0123F0
:105910000023DBB200930346F868094CA04701E07E
:10592000002300E0012318461437BD4690BD00BF98
:1059300045594000CD544000A1544000DD55400081
:105940005D56400080B485B000AF78607B685A092E
:10595000054B13445B02FB60FB6818461437BD46D9
:105960005DF8047B704700BF0707200080B483B058
:1059700000AF0346FB71094997F907305B09FA79D3
:1059800002F01F02012000FA02F241F8232000BFBA
:105990000C37BD465DF8047B704700BF00E100E0B6
:1059A00080B483B000AF0346FB71094997F9073013
:1059B0005B09FA7902F01F02012000FA02F220339B
:1059C00041F8232000BF0C37BD465DF8047B7047CB
:1059D00000E100E080B483B000AF0346FB710949E9
:1059E00097F907305B09FA7902F01F02012000FAEB
:1059F00002F2603341F8232000BF0C37BD465DF84A
:105A0000047B704700E100E080B483B000AF034640
:105A10003960FB7197F90730002B0BDA0D49FB79E0
:105A200003F00F03043B3A68D2B25201D2B20B44E6
:105A30001A7609E0084997F907303A68D2B252015C
:105A4000D2B20B4483F8002300BF0C37BD465DF88B
:105A5000047B704700ED00E000E100E080B584B019
:105A600000AF786039607868264B9847F8607868AE
:105A7000254B98470246FB681340FB60FB68002BF0
:105A80003CD00023BB6034E0204ABB681B011344B8
:105A90001A683B689A4226D11C4ABB681B01134412
:105AA00004331A68FB681340002B1CD0174ABB68EC
:105AB0001B0113440C331B681449BA6812010A44D1
:105AC00010681249BA6812010A4404321268114679
:105AD00098470E4ABB681B01134404331B68DB4321
